{
  "contractName": "MultiChainSwapUniV3",
  "abi": [
    {
      "inputs": [
        {
          "internalType": "address",
          "name": "zetaConnector_",
          "type": "address"
        },
        {
          "internalType": "address",
          "name": "zetaToken_",
          "type": "address"
        },
        {
          "internalType": "address",
          "name": "uniswapV3Router_",
          "type": "address"
        },
        {
          "internalType": "address",
          "name": "quoter_",
          "type": "address"
        },
        {
          "internalType": "address",
          "name": "WETH9Address_",
          "type": "address"
        },
        {
          "internalType": "uint24",
          "name": "zetaPoolFee_",
          "type": "uint24"
        },
        {
          "internalType": "uint24",
          "name": "tokenPoolFee_",
          "type": "uint24"
        }
      ],
      "stateMutability": "nonpayable",
      "type": "constructor"
    },
    {
      "inputs": [],
      "name": "ErrorGettingToken",
      "type": "error"
    },
    {
      "inputs": [],
      "name": "ErrorSendingETH",
      "type": "error"
    },
    {
      "inputs": [],
      "name": "InputCantBeZero",
      "type": "error"
    },
    {
      "inputs": [],
      "name": "InvalidAddress",
      "type": "error"
    },
    {
      "inputs": [
        {
          "internalType": "address",
          "name": "caller",
          "type": "address"
        }
      ],
      "name": "InvalidCaller",
      "type": "error"
    },
    {
      "inputs": [],
      "name": "InvalidDestinationChainId",
      "type": "error"
    },
    {
      "inputs": [],
      "name": "InvalidZetaMessageCall",
      "type": "error"
    },
    {
      "inputs": [],
      "name": "InvalidZetaRevertCall",
      "type": "error"
    },
    {
      "anonymous": false,
      "inputs": [
        {
          "indexed": false,
          "internalType": "uint256",
          "name": "amountIn",
          "type": "uint256"
        },
        {
          "indexed": false,
          "internalType": "uint256",
          "name": "amountOut",
          "type": "uint256"
        }
      ],
      "name": "EthExchangedForZeta",
      "type": "event"
    },
    {
      "anonymous": false,
      "inputs": [
        {
          "indexed": true,
          "internalType": "address",
          "name": "previousOwner",
          "type": "address"
        },
        {
          "indexed": true,
          "internalType": "address",
          "name": "newOwner",
          "type": "address"
        }
      ],
      "name": "OwnershipTransferred",
      "type": "event"
    },
    {
      "anonymous": false,
      "inputs": [
        {
          "indexed": false,
          "internalType": "address",
          "name": "sourceTxOrigin",
          "type": "address"
        },
        {
          "indexed": false,
          "internalType": "address",
          "name": "sourceInputToken",
          "type": "address"
        },
        {
          "indexed": false,
          "internalType": "uint256",
          "name": "inputTokenAmount",
          "type": "uint256"
        },
        {
          "indexed": false,
          "internalType": "uint256",
          "name": "inputTokenReturnedAmount",
          "type": "uint256"
        }
      ],
      "name": "RevertedSwap",
      "type": "event"
    },
    {
      "anonymous": false,
      "inputs": [
        {
          "indexed": false,
          "internalType": "address",
          "name": "sourceTxOrigin",
          "type": "address"
        },
        {
          "indexed": false,
          "internalType": "uint256",
          "name": "inputEthAmount",
          "type": "uint256"
        },
        {
          "indexed": false,
          "internalType": "address",
          "name": "destinationOutToken",
          "type": "address"
        },
        {
          "indexed": false,
          "internalType": "uint256",
          "name": "outTokenMinAmount",
          "type": "uint256"
        },
        {
          "indexed": false,
          "internalType": "address",
          "name": "receiverAddress",
          "type": "address"
        }
      ],
      "name": "SentEthSwap",
      "type": "event"
    },
    {
      "anonymous": false,
      "inputs": [
        {
          "indexed": false,
          "internalType": "address",
          "name": "sourceTxOrigin",
          "type": "address"
        },
        {
          "indexed": false,
          "internalType": "address",
          "name": "sourceInputToken",
          "type": "address"
        },
        {
          "indexed": false,
          "internalType": "uint256",
          "name": "inputTokenAmount",
          "type": "uint256"
        },
        {
          "indexed": false,
          "internalType": "address",
          "name": "destinationOutToken",
          "type": "address"
        },
        {
          "indexed": false,
          "internalType": "uint256",
          "name": "outTokenMinAmount",
          "type": "uint256"
        },
        {
          "indexed": false,
          "internalType": "address",
          "name": "receiverAddress",
          "type": "address"
        }
      ],
      "name": "SentTokenSwap",
      "type": "event"
    },
    {
      "anonymous": false,
      "inputs": [
        {
          "indexed": false,
          "internalType": "address",
          "name": "sourceTxOrigin",
          "type": "address"
        },
        {
          "indexed": false,
          "internalType": "address",
          "name": "sourceInputToken",
          "type": "address"
        },
        {
          "indexed": false,
          "internalType": "uint256",
          "name": "inputTokenAmount",
          "type": "uint256"
        },
        {
          "indexed": false,
          "internalType": "address",
          "name": "destinationOutToken",
          "type": "address"
        },
        {
          "indexed": false,
          "internalType": "uint256",
          "name": "outTokenFinalAmount",
          "type": "uint256"
        },
        {
          "indexed": false,
          "internalType": "address",
          "name": "receiverAddress",
          "type": "address"
        }
      ],
      "name": "Swapped",
      "type": "event"
    },
    {
      "anonymous": false,
      "inputs": [
        {
          "indexed": false,
          "internalType": "address",
          "name": "token",
          "type": "address"
        },
        {
          "indexed": false,
          "internalType": "uint256",
          "name": "amountIn",
          "type": "uint256"
        },
        {
          "indexed": false,
          "internalType": "uint256",
          "name": "amountOut",
          "type": "uint256"
        }
      ],
      "name": "TokenExchangedForZeta",
      "type": "event"
    },
    {
      "anonymous": false,
      "inputs": [
        {
          "indexed": false,
          "internalType": "uint256",
          "name": "amountIn",
          "type": "uint256"
        },
        {
          "indexed": false,
          "internalType": "uint256",
          "name": "amountOut",
          "type": "uint256"
        }
      ],
      "name": "ZetaExchangedForEth",
      "type": "event"
    },
    {
      "anonymous": false,
      "inputs": [
        {
          "indexed": false,
          "internalType": "address",
          "name": "token",
          "type": "address"
        },
        {
          "indexed": false,
          "internalType": "uint256",
          "name": "amountIn",
          "type": "uint256"
        },
        {
          "indexed": false,
          "internalType": "uint256",
          "name": "amountOut",
          "type": "uint256"
        }
      ],
      "name": "ZetaExchangedForToken",
      "type": "event"
    },
    {
      "inputs": [],
      "name": "CROSS_CHAIN_SWAP_MESSAGE",
      "outputs": [
        {
          "internalType": "bytes32",
          "name": "",
          "type": "bytes32"
        }
      ],
      "stateMutability": "view",
      "type": "function"
    },
    {
      "inputs": [],
      "name": "connector",
      "outputs": [
        {
          "internalType": "contract ZetaConnector",
          "name": "",
          "type": "address"
        }
      ],
      "stateMutability": "view",
      "type": "function"
    },
    {
      "inputs": [
        {
          "internalType": "address",
          "name": "destinationAddress",
          "type": "address"
        },
        {
          "internalType": "uint256",
          "name": "minAmountOut",
          "type": "uint256"
        },
        {
          "internalType": "uint256",
          "name": "zetaTokenAmount",
          "type": "uint256"
        }
      ],
      "name": "getEthFromZeta",
      "outputs": [
        {
          "internalType": "uint256",
          "name": "",
          "type": "uint256"
        }
      ],
      "stateMutability": "nonpayable",
      "type": "function"
    },
    {
      "inputs": [
        {
          "internalType": "address",
          "name": "destinationAddress",
          "type": "address"
        },
        {
          "internalType": "uint256",
          "name": "minAmountOut",
          "type": "uint256"
        },
        {
          "internalType": "address",
          "name": "outputToken",
          "type": "address"
        },
        {
          "internalType": "uint256",
          "name": "zetaTokenAmount",
          "type": "uint256"
        }
      ],
      "name": "getTokenFromZeta",
      "outputs": [
        {
          "internalType": "uint256",
          "name": "",
          "type": "uint256"
        }
      ],
      "stateMutability": "nonpayable",
      "type": "function"
    },
    {
      "inputs": [
        {
          "internalType": "address",
          "name": "destinationAddress",
          "type": "address"
        },
        {
          "internalType": "uint256",
          "name": "minAmountOut",
          "type": "uint256"
        }
      ],
      "name": "getZetaFromEth",
      "outputs": [
        {
          "internalType": "uint256",
          "name": "",
          "type": "uint256"
        }
      ],
      "stateMutability": "payable",
      "type": "function"
    },
    {
      "inputs": [
        {
          "internalType": "address",
          "name": "destinationAddress",
          "type": "address"
        },
        {
          "internalType": "uint256",
          "name": "minAmountOut",
          "type": "uint256"
        },
        {
          "internalType": "address",
          "name": "inputToken",
          "type": "address"
        },
        {
          "internalType": "uint256",
          "name": "inputTokenAmount",
          "type": "uint256"
        }
      ],
      "name": "getZetaFromToken",
      "outputs": [
        {
          "internalType": "uint256",
          "name": "",
          "type": "uint256"
        }
      ],
      "stateMutability": "nonpayable",
      "type": "function"
    },
    {
      "inputs": [
        {
          "internalType": "uint256",
          "name": "",
          "type": "uint256"
        }
      ],
      "name": "interactorsByChainId",
      "outputs": [
        {
          "internalType": "bytes",
          "name": "",
          "type": "bytes"
        }
      ],
      "stateMutability": "view",
      "type": "function"
    },
    {
      "inputs": [],
      "name": "owner",
      "outputs": [
        {
          "internalType": "address",
          "name": "",
          "type": "address"
        }
      ],
      "stateMutability": "view",
      "type": "function"
    },
    {
      "inputs": [],
      "name": "quoter",
      "outputs": [
        {
          "internalType": "contract IQuoter",
          "name": "",
          "type": "address"
        }
      ],
      "stateMutability": "view",
      "type": "function"
    },
    {
      "inputs": [],
      "name": "renounceOwnership",
      "outputs": [],
      "stateMutability": "nonpayable",
      "type": "function"
    },
    {
      "inputs": [
        {
          "internalType": "uint256",
          "name": "destinationChainId",
          "type": "uint256"
        },
        {
          "internalType": "bytes",
          "name": "contractAddress",
          "type": "bytes"
        }
      ],
      "name": "setInteractorByChainId",
      "outputs": [],
      "stateMutability": "nonpayable",
      "type": "function"
    },
    {
      "inputs": [],
      "name": "tokenPoolFee",
      "outputs": [
        {
          "internalType": "uint24",
          "name": "",
          "type": "uint24"
        }
      ],
      "stateMutability": "view",
      "type": "function"
    },
    {
      "inputs": [
        {
          "internalType": "address",
          "name": "newOwner",
          "type": "address"
        }
      ],
      "name": "transferOwnership",
      "outputs": [],
      "stateMutability": "nonpayable",
      "type": "function"
    },
    {
      "inputs": [],
      "name": "uniswapV3Router",
      "outputs": [
        {
          "internalType": "contract ISwapRouter",
          "name": "",
          "type": "address"
        }
      ],
      "stateMutability": "view",
      "type": "function"
    },
    {
      "inputs": [],
      "name": "zetaPoolFee",
      "outputs": [
        {
          "internalType": "uint24",
          "name": "",
          "type": "uint24"
        }
      ],
      "stateMutability": "view",
      "type": "function"
    },
    {
      "inputs": [],
      "name": "zetaToken",
      "outputs": [
        {
          "internalType": "address",
          "name": "",
          "type": "address"
        }
      ],
      "stateMutability": "view",
      "type": "function"
    },
    {
      "stateMutability": "payable",
      "type": "receive"
    },
    {
      "inputs": [
        {
          "internalType": "bytes",
          "name": "receiverAddress",
          "type": "bytes"
        },
        {
          "internalType": "address",
          "name": "destinationOutToken",
          "type": "address"
        },
        {
          "internalType": "bool",
          "name": "isDestinationOutETH",
          "type": "bool"
        },
        {
          "internalType": "uint256",
          "name": "outTokenMinAmount",
          "type": "uint256"
        },
        {
          "internalType": "uint256",
          "name": "destinationChainId",
          "type": "uint256"
        },
        {
          "internalType": "uint256",
          "name": "crossChaindestinationGasLimit",
          "type": "uint256"
        }
      ],
      "name": "swapETHForTokensCrossChain",
      "outputs": [],
      "stateMutability": "payable",
      "type": "function"
    },
    {
      "inputs": [
        {
          "internalType": "address",
          "name": "sourceInputToken",
          "type": "address"
        },
        {
          "internalType": "uint256",
          "name": "inputTokenAmount",
          "type": "uint256"
        },
        {
          "internalType": "bytes",
          "name": "receiverAddress",
          "type": "bytes"
        },
        {
          "internalType": "address",
          "name": "destinationOutToken",
          "type": "address"
        },
        {
          "internalType": "bool",
          "name": "isDestinationOutETH",
          "type": "bool"
        },
        {
          "internalType": "uint256",
          "name": "outTokenMinAmount",
          "type": "uint256"
        },
        {
          "internalType": "uint256",
          "name": "destinationChainId",
          "type": "uint256"
        },
        {
          "internalType": "uint256",
          "name": "crossChaindestinationGasLimit",
          "type": "uint256"
        }
      ],
      "name": "swapTokensForTokensCrossChain",
      "outputs": [],
      "stateMutability": "nonpayable",
      "type": "function"
    },
    {
      "inputs": [
        {
          "components": [
            {
              "internalType": "bytes",
              "name": "zetaTxSenderAddress",
              "type": "bytes"
            },
            {
              "internalType": "uint256",
              "name": "sourceChainId",
              "type": "uint256"
            },
            {
              "internalType": "address",
              "name": "destinationAddress",
              "type": "address"
            },
            {
              "internalType": "uint256",
              "name": "zetaValueAndGas",
              "type": "uint256"
            },
            {
              "internalType": "bytes",
              "name": "message",
              "type": "bytes"
            }
          ],
          "internalType": "struct ZetaInterfaces.ZetaMessage",
          "name": "zetaMessage",
          "type": "tuple"
        }
      ],
      "name": "onZetaMessage",
      "outputs": [],
      "stateMutability": "nonpayable",
      "type": "function"
    },
    {
      "inputs": [
        {
          "components": [
            {
              "internalType": "address",
              "name": "zetaTxSenderAddress",
              "type": "address"
            },
            {
              "internalType": "uint256",
              "name": "sourceChainId",
              "type": "uint256"
            },
            {
              "internalType": "bytes",
              "name": "destinationAddress",
              "type": "bytes"
            },
            {
              "internalType": "uint256",
              "name": "destinationChainId",
              "type": "uint256"
            },
            {
              "internalType": "uint256",
              "name": "zetaValueAndGas",
              "type": "uint256"
            },
            {
              "internalType": "bytes",
              "name": "message",
              "type": "bytes"
            }
          ],
          "internalType": "struct ZetaInterfaces.ZetaRevert",
          "name": "zetaRevert",
          "type": "tuple"
        }
      ],
      "name": "onZetaRevert",
      "outputs": [],
      "stateMutability": "nonpayable",
      "type": "function"
    }
  ],
  "bytecode": "0x6101606040523480156200001257600080fd5b5060405162004db138038062004db18339818101604052810190620000389190620003cf565b8585858585858c6200005f62000053620002d560201b60201c565b620002dd60201b60201c565b466080818152505080600160006101000a81548173ffffffffffffffffffffffffffffffffffffffff021916908373ffffffffffffffffffffffffffffffffffffffff16021790555050600073ffffffffffffffffffffffffffffffffffffffff168673ffffffffffffffffffffffffffffffffffffffff161480620001115750600073ffffffffffffffffffffffffffffffffffffffff168573ffffffffffffffffffffffffffffffffffffffff16145b80620001495750600073ffffffffffffffffffffffffffffffffffffffff168473ffffffffffffffffffffffffffffffffffffffff16145b80620001815750600073ffffffffffffffffffffffffffffffffffffffff168373ffffffffffffffffffffffffffffffffffffffff16145b15620001b9576040517fe6c4247b00000000000000000000000000000000000000000000000000000000815260040160405180910390fd5b8573ffffffffffffffffffffffffffffffffffffffff166101008173ffffffffffffffffffffffffffffffffffffffff1660601b815250508473ffffffffffffffffffffffffffffffffffffffff166101208173ffffffffffffffffffffffffffffffffffffffff1660601b815250508373ffffffffffffffffffffffffffffffffffffffff166101408173ffffffffffffffffffffffffffffffffffffffff1660601b815250508273ffffffffffffffffffffffffffffffffffffffff1660e08173ffffffffffffffffffffffffffffffffffffffff1660601b815250508162ffffff1660a08162ffffff1660e81b815250508062ffffff1660c08162ffffff1660e81b8152505050505050505050505050505050620004fe565b600033905090565b60008060009054906101000a900473ffffffffffffffffffffffffffffffffffffffff169050816000806101000a81548173ffffffffffffffffffffffffffffffffffffffff021916908373ffffffffffffffffffffffffffffffffffffffff1602179055508173ffffffffffffffffffffffffffffffffffffffff168173ffffffffffffffffffffffffffffffffffffffff167f8be0079c531659141344cd1fd0a4f28419497f9722a3daafe3b4186f6b6457e060405160405180910390a35050565b600081519050620003b281620004ca565b92915050565b600081519050620003c981620004e4565b92915050565b600080600080600080600060e0888a031215620003f157620003f0620004c5565b5b6000620004018a828b01620003a1565b9750506020620004148a828b01620003a1565b9650506040620004278a828b01620003a1565b95505060606200043a8a828b01620003a1565b94505060806200044d8a828b01620003a1565b93505060a0620004608a828b01620003b8565b92505060c0620004738a828b01620003b8565b91505092959891949750929550565b60006200048f8262000496565b9050919050565b600073ffffffffffffffffffffffffffffffffffffffff82169050919050565b600062ffffff82169050919050565b600080fd5b620004d58162000482565b8114620004e157600080fd5b50565b620004ef81620004b6565b8114620004fb57600080fd5b50565b60805160a05160e81c60c05160e81c60e05160601c6101005160601c6101205160601c6101405160601c61474a6200066760003960006125f401526000818161065a0152818161093001528181610af001528181610c860152818161164d015281816118210152818161233e01526124fe01526000818161059a0152818161074c01528181610a6b01528181610d7801528181610de101528181610e3c01528181611160015281816111bd0152818161120d0152818161126901528181611529015281816116110152818161172501528181611b5b01528181611de601528181611f290152818161221a01528181612302015261241501526000818161055e01528181610a2901528181611761015281816118ce01528181611cb90152612457015260008181610a0801528181611a4301526124780152600081816105d601528181610a4a0152818161102d0152818161179d0152612436015260006110d1015261474a6000f3fe6080604052600436106101235760003560e01c806354c49a2a116100a05780638da5cb5b116100645780638da5cb5b146103c65780639848a6b3146103f1578063a53fb10b1461041a578063c6bbd5a714610457578063f2fde38b146104825761012a565b806354c49a2a146103005780635d9dfdde1461033d578063715018a61461036857806383f3084f1461037f57806385ff842c146103aa5761012a565b80633749c51a116100e75780633749c51a1461022f5780633cbd7005146102585780633ff0693c1461028357806340bfddf0146102ac5780634fd3f7d7146102d75761012a565b8063013b2ff81461012f57806321e093b11461015f5780632405620a1461018a5780632618143f146101c75780632c76d7a6146102045761012a565b3661012a57005b600080fd5b61014960048036038101906101449190612fe1565b6104ab565b6040516101569190613feb565b60405180910390f35b34801561016b57600080fd5b5061017461074a565b6040516101819190613adf565b60405180910390f35b34801561019657600080fd5b506101b160048036038101906101ac9190613021565b61076e565b6040516101be9190613feb565b60405180910390f35b3480156101d357600080fd5b506101ee60048036038101906101e99190613405565b610be4565b6040516101fb9190613dfb565b60405180910390f35b34801561021057600080fd5b50610219610c84565b6040516102269190613e38565b60405180910390f35b34801561023b57600080fd5b5061025660048036038101906102519190613373565b610ca8565b005b34801561026457600080fd5b5061026d61102b565b60405161027a9190613fd0565b60405180910390f35b34801561028f57600080fd5b506102aa60048036038101906102a591906133bc565b61104f565b005b3480156102b857600080fd5b506102c161142e565b6040516102ce9190613d4a565b60405180910390f35b3480156102e357600080fd5b506102fe60048036038101906102f9919061345f565b611452565b005b34801561030c57600080fd5b506103276004803603810190610322919061315e565b611482565b6040516103349190613feb565b60405180910390f35b34801561034957600080fd5b50610352611a41565b60405161035f9190613fd0565b60405180910390f35b34801561037457600080fd5b5061037d611a65565b005b34801561038b57600080fd5b50610394611a79565b6040516103a19190613e53565b60405180910390f35b6103c460048036038101906103bf91906132c4565b611a9f565b005b3480156103d257600080fd5b506103db611d8c565b6040516103e89190613adf565b60405180910390f35b3480156103fd57600080fd5b5061041860048036038101906104139190613088565b611db5565b005b34801561042657600080fd5b50610441600480360381019061043c9190613021565b61213c565b60405161044e9190613feb565b60405180910390f35b34801561046357600080fd5b5061046c6125f2565b6040516104799190613e1d565b60405180910390f35b34801561048e57600080fd5b506104a960048036038101906104a49190612fb4565b612616565b005b60008073ffffffffffffffffffffffffffffffffffffffff168373ffffffffffffffffffffffffffffffffffffffff161415610513576040517fe6c4247b00000000000000000000000000000000000000000000000000000000815260040160405180910390fd5b600034141561054e576040517fb813f54900000000000000000000000000000000000000000000000000000000815260040160405180910390fd5b60006040518061010001604052807f000000000000000000000000000000000000000000000000000000000000000073ffffffffffffffffffffffffffffffffffffffff1681526020017f000000000000000000000000000000000000000000000000000000000000000073ffffffffffffffffffffffffffffffffffffffff1681526020017f000000000000000000000000000000000000000000000000000000000000000062ffffff1681526020018573ffffffffffffffffffffffffffffffffffffffff1681526020016064426106289190614161565b8152602001348152602001848152602001600073ffffffffffffffffffffffffffffffffffffffff16815250905060007f000000000000000000000000000000000000000000000000000000000000000073ffffffffffffffffffffffffffffffffffffffff1663414bf38934846040518363ffffffff1660e01b81526004016106b29190613f92565b6020604051808303818588803b1580156106cb57600080fd5b505af11580156106df573d6000803e3d6000fd5b50505050506040513d601f19601f820116820180604052508101906107049190613432565b90507f87890b0a30955b1db16cc894fbe24779ae05d9f337bfe8b6dfc0809b5bf9da113482604051610737929190614006565b60405180910390a1809250505092915050565b7f000000000000000000000000000000000000000000000000000000000000000081565b60008073ffffffffffffffffffffffffffffffffffffffff168573ffffffffffffffffffffffffffffffffffffffff1614806107d65750600073ffffffffffffffffffffffffffffffffffffffff168373ffffffffffffffffffffffffffffffffffffffff16145b1561080d576040517fe6c4247b00000000000000000000000000000000000000000000000000000000815260040160405180910390fd5b6000821415610848576040517fb813f54900000000000000000000000000000000000000000000000000000000815260040160405180910390fd5b60008373ffffffffffffffffffffffffffffffffffffffff166323b872dd3330866040518463ffffffff1660e01b815260040161088793929190613b23565b602060405180830381600087803b1580156108a157600080fd5b505af11580156108b5573d6000803e3d6000fd5b505050506040513d601f19601f820116820180604052508101906108d991906131b1565b905080610912576040517f9f5c462100000000000000000000000000000000000000000000000000000000815260040160405180910390fd5b8373ffffffffffffffffffffffffffffffffffffffff1663095ea7b37f0000000000000000000000000000000000000000000000000000000000000000856040518363ffffffff1660e01b815260040161096d929190613ca5565b602060405180830381600087803b15801561098757600080fd5b505af115801561099b573d6000803e3d6000fd5b505050506040513d601f19601f820116820180604052508101906109bf91906131b1565b9050806109f8576040517f9f5c462100000000000000000000000000000000000000000000000000000000815260040160405180910390fd5b60006040518060a00160405280867f00000000000000000000000000000000000000000000000000000000000000007f00000000000000000000000000000000000000000000000000000000000000007f00000000000000000000000000000000000000000000000000000000000000007f0000000000000000000000000000000000000000000000000000000000000000604051602001610a9e959493929190613a24565b60405160208183030381529060405281526020018873ffffffffffffffffffffffffffffffffffffffff168152602001606442610adb9190614161565b815260200185815260200187815250905060007f000000000000000000000000000000000000000000000000000000000000000073ffffffffffffffffffffffffffffffffffffffff1663c04b8d59836040518263ffffffff1660e01b8152600401610b479190613f70565b602060405180830381600087803b158015610b6157600080fd5b505af1158015610b75573d6000803e3d6000fd5b505050506040513d601f19601f82011682018060405250810190610b999190613432565b90507f017190d3d99ee6d8dd0604ef1e71ff9802810c6485f57c9b2ed6169848dd119f868683604051610bce93929190613d13565b60405180910390a1809350505050949350505050565b60026020528060005260406000206000915090508054610c039061436b565b80601f0160208091040260200160405190810160405280929190818152602001828054610c2f9061436b565b8015610c7c5780601f10610c5157610100808354040283529160200191610c7c565b820191906000526020600020905b815481529060010190602001808311610c5f57829003601f168201915b505050505081565b7f000000000000000000000000000000000000000000000000000000000000000081565b80610cb161269a565b6002600082602001358152602001908152602001600020604051610cd59190613ab3565b6040518091039020818060000190610ced919061402f565b604051610cfb929190613a83565b604051809103902014610d3a576040517fb473eb0a00000000000000000000000000000000000000000000000000000000815260040160405180910390fd5b600080600080600080600080898060800190610d56919061402f565b810190610d6391906131de565b509750975097509750975097509750975060007f000000000000000000000000000000000000000000000000000000000000000073ffffffffffffffffffffffffffffffffffffffff168473ffffffffffffffffffffffffffffffffffffffff161415610e3157610e2585610dd790614256565b60601c8c606001357f000000000000000000000000000000000000000000000000000000000000000073ffffffffffffffffffffffffffffffffffffffff1661272e9092919063ffffffff16565b8a606001359050610fd1565b610e80308c606001357f000000000000000000000000000000000000000000000000000000000000000073ffffffffffffffffffffffffffffffffffffffff166127b49092919063ffffffff16565b8215610f2c573073ffffffffffffffffffffffffffffffffffffffff166354c49a2a86610eac90614256565b60601c848e606001356040518463ffffffff1660e01b8152600401610ed393929190613d13565b602060405180830381600087803b158015610eed57600080fd5b505af1158015610f01573d6000803e3d6000fd5b505050506040513d601f19601f82011682018060405250810190610f259190613432565b9050610fd0565b3073ffffffffffffffffffffffffffffffffffffffff1663a53fb10b86610f5290614256565b60601c84878f606001356040518563ffffffff1660e01b8152600401610f7b9493929190613cce565b602060405180830381600087803b158015610f9557600080fd5b505af1158015610fa9573d6000803e3d6000fd5b505050506040513d601f19601f82011682018060405250810190610fcd9190613432565b90505b5b7f6135b536e33070976edb6dc1ecd6f9235b0d3a24970b028cd9dc6994bd0d5ec088888887858a61100190614256565b60601c60405161101696959493929190613b5a565b60405180910390a15050505050505050505050565b7f000000000000000000000000000000000000000000000000000000000000000081565b8061105861269a565b3073ffffffffffffffffffffffffffffffffffffffff168160000160208101906110829190612fb4565b73ffffffffffffffffffffffffffffffffffffffff16146110cf576040517fc03e9c3f00000000000000000000000000000000000000000000000000000000815260040160405180910390fd5b7f000000000000000000000000000000000000000000000000000000000000000081602001351461112c576040517fc03e9c3f00000000000000000000000000000000000000000000000000000000815260040160405180910390fd5b600080600080858060a00190611142919061402f565b81019061114f91906131de565b9850505050509450945094505060007f000000000000000000000000000000000000000000000000000000000000000073ffffffffffffffffffffffffffffffffffffffff168473ffffffffffffffffffffffffffffffffffffffff16141561125e576112013088608001357f000000000000000000000000000000000000000000000000000000000000000073ffffffffffffffffffffffffffffffffffffffff166127b49092919063ffffffff16565b611252308689608001357f000000000000000000000000000000000000000000000000000000000000000073ffffffffffffffffffffffffffffffffffffffff16612912909392919063ffffffff16565b866080013590506113e8565b6112ad3088608001357f000000000000000000000000000000000000000000000000000000000000000073ffffffffffffffffffffffffffffffffffffffff166127b49092919063ffffffff16565b811561134e573073ffffffffffffffffffffffffffffffffffffffff166354c49a2a8660008a608001356040518463ffffffff1660e01b81526004016112f593929190613c6e565b602060405180830381600087803b15801561130f57600080fd5b505af1158015611323573d6000803e3d6000fd5b505050506040513d601f19601f820116820180604052508101906113479190613432565b90506113e7565b3073ffffffffffffffffffffffffffffffffffffffff1663a53fb10b866000878b608001356040518563ffffffff1660e01b81526004016113929493929190613c29565b602060405180830381600087803b1580156113ac57600080fd5b505af11580156113c0573d6000803e3d6000fd5b505050506040513d601f19601f820116820180604052508101906113e49190613432565b90505b5b7f038c50564f7d16a801ecb85a9eb58cc10af6400fadc80b0e8b8a9b082b32a1ba8585858460405161141d9493929190613bbb565b60405180910390a150505050505050565b7f65f49bd49de252a7f0d9100776c70f0da398368ef9866f8e21fbb0e3e630e74f81565b61145a61299b565b818160026000868152602001908152602001600020919061147c929190612d7a565b50505050565b60008073ffffffffffffffffffffffffffffffffffffffff168473ffffffffffffffffffffffffffffffffffffffff1614156114ea576040517fe6c4247b00000000000000000000000000000000000000000000000000000000815260040160405180910390fd5b6000821415611525576040517fb813f54900000000000000000000000000000000000000000000000000000000815260040160405180910390fd5b60007f000000000000000000000000000000000000000000000000000000000000000073ffffffffffffffffffffffffffffffffffffffff166323b872dd3330866040518463ffffffff1660e01b815260040161158493929190613b23565b602060405180830381600087803b15801561159e57600080fd5b505af11580156115b2573d6000803e3d6000fd5b505050506040513d601f19601f820116820180604052508101906115d691906131b1565b90508061160f576040517f9f5c462100000000000000000000000000000000000000000000000000000000815260040160405180910390fd5b7f000000000000000000000000000000000000000000000000000000000000000073ffffffffffffffffffffffffffffffffffffffff1663095ea7b37f0000000000000000000000000000000000000000000000000000000000000000856040518363ffffffff1660e01b815260040161168a929190613ca5565b602060405180830381600087803b1580156116a457600080fd5b505af11580156116b8573d6000803e3d6000fd5b505050506040513d601f19601f820116820180604052508101906116dc91906131b1565b905080611715576040517f9f5c462100000000000000000000000000000000000000000000000000000000815260040160405180910390fd5b60006040518061010001604052807f000000000000000000000000000000000000000000000000000000000000000073ffffffffffffffffffffffffffffffffffffffff1681526020017f000000000000000000000000000000000000000000000000000000000000000073ffffffffffffffffffffffffffffffffffffffff1681526020017f000000000000000000000000000000000000000000000000000000000000000062ffffff1681526020013073ffffffffffffffffffffffffffffffffffffffff1681526020016064426117ef9190614161565b8152602001858152602001868152602001600073ffffffffffffffffffffffffffffffffffffffff16815250905060007f000000000000000000000000000000000000000000000000000000000000000073ffffffffffffffffffffffffffffffffffffffff1663414bf389836040518263ffffffff1660e01b81526004016118789190613f92565b602060405180830381600087803b15801561189257600080fd5b505af11580156118a6573d6000803e3d6000fd5b505050506040513d601f19601f820116820180604052508101906118ca9190613432565b90507f000000000000000000000000000000000000000000000000000000000000000073ffffffffffffffffffffffffffffffffffffffff16632e1a7d4d826040518263ffffffff1660e01b81526004016119259190613feb565b600060405180830381600087803b15801561193f57600080fd5b505af1158015611953573d6000803e3d6000fd5b5050505060008773ffffffffffffffffffffffffffffffffffffffff168260405161197d90613aca565b60006040518083038185875af1925050503d80600081146119ba576040519150601f19603f3d011682016040523d82523d6000602084013e6119bf565b606091505b50509050806119fa576040517f3794aeaf00000000000000000000000000000000000000000000000000000000815260040160405180910390fd5b7f74e171117e91660f493740924d8bad0caf48dc4fbccb767fb05935397a2c17ae8683604051611a2b929190614006565b60405180910390a1819450505050509392505050565b7f000000000000000000000000000000000000000000000000000000000000000081565b611a6d61299b565b611a776000612a19565b565b600160009054906101000a900473ffffffffffffffffffffffffffffffffffffffff1681565b60003073ffffffffffffffffffffffffffffffffffffffff1663013b2ff8343060006040518463ffffffff1660e01b8152600401611ade929190613c00565b6020604051808303818588803b158015611af757600080fd5b505af1158015611b0b573d6000803e3d6000fd5b50505050506040513d601f19601f82011682018060405250810190611b309190613432565b9050611b9f600160009054906101000a900473ffffffffffffffffffffffffffffffffffffffff16827f000000000000000000000000000000000000000000000000000000000000000073ffffffffffffffffffffffffffffffffffffffff166127b49092919063ffffffff16565b600160009054906101000a900473ffffffffffffffffffffffffffffffffffffffff1673ffffffffffffffffffffffffffffffffffffffff1663ec0269016040518060c00160405280868152602001600260008881526020019081526020016000208054611c0c9061436b565b80601f0160208091040260200160405190810160405280929190818152602001828054611c389061436b565b8015611c855780601f10611c5a57610100808354040283529160200191611c85565b820191906000526020600020905b815481529060010190602001808311611c6857829003601f168201915b505050505081526020018581526020017f65f49bd49de252a7f0d9100776c70f0da398368ef9866f8e21fbb0e3e630e74f337f0000000000000000000000000000000000000000000000000000000000000000348f8f8f8f8f6001604051602001611cf99a99989796959493929190613d65565b6040516020818303038152906040528152602001848152602001604051602001611d2290613ef0565b6040516020818303038152906040528152506040518263ffffffff1660e01b8152600401611d509190613fae565b600060405180830381600087803b158015611d6a57600080fd5b505af1158015611d7e573d6000803e3d6000fd5b505050505050505050505050565b60008060009054906101000a900473ffffffffffffffffffffffffffffffffffffffff16905090565b6000611de433308b8d73ffffffffffffffffffffffffffffffffffffffff16612912909392919063ffffffff16565b7f000000000000000000000000000000000000000000000000000000000000000073ffffffffffffffffffffffffffffffffffffffff168a73ffffffffffffffffffffffffffffffffffffffff161415611e4057889050611f00565b611e6b308a8c73ffffffffffffffffffffffffffffffffffffffff166127b49092919063ffffffff16565b3073ffffffffffffffffffffffffffffffffffffffff16632405620a3060008d8d6040518563ffffffff1660e01b8152600401611eab9493929190613c29565b602060405180830381600087803b158015611ec557600080fd5b505af1158015611ed9573d6000803e3d6000fd5b505050506040513d601f19601f82011682018060405250810190611efd9190613432565b90505b611f6d600160009054906101000a900473ffffffffffffffffffffffffffffffffffffffff16827f000000000000000000000000000000000000000000000000000000000000000073ffffffffffffffffffffffffffffffffffffffff166127b49092919063ffffffff16565b600160009054906101000a900473ffffffffffffffffffffffffffffffffffffffff1673ffffffffffffffffffffffffffffffffffffffff1663ec0269016040518060c00160405280868152602001600260008881526020019081526020016000208054611fda9061436b565b80601f01602080910402602001604051908101604052809291908181526020018280546120069061436b565b80156120535780601f1061202857610100808354040283529160200191612053565b820191906000526020600020905b81548152906001019060200180831161203657829003601f168201915b505050505081526020018581526020017f65f49bd49de252a7f0d9100776c70f0da398368ef9866f8e21fbb0e3e630e74f338f8f8f8f8f8f8f60006040516020016120a79a99989796959493929190613d65565b60405160208183030381529060405281526020018481526020016040516020016120d090613ef0565b6040516020818303038152906040528152506040518263ffffffff1660e01b81526004016120fe9190613fae565b600060405180830381600087803b15801561211857600080fd5b505af115801561212c573d6000803e3d6000fd5b5050505050505050505050505050565b60008073ffffffffffffffffffffffffffffffffffffffff168573ffffffffffffffffffffffffffffffffffffffff1614806121a45750600073ffffffffffffffffffffffffffffffffffffffff168373ffffffffffffffffffffffffffffffffffffffff16145b156121db576040517fe6c4247b00000000000000000000000000000000000000000000000000000000815260040160405180910390fd5b6000821415612216576040517fb813f54900000000000000000000000000000000000000000000000000000000815260040160405180910390fd5b60007f000000000000000000000000000000000000000000000000000000000000000073ffffffffffffffffffffffffffffffffffffffff166323b872dd3330866040518463ffffffff1660e01b815260040161227593929190613b23565b602060405180830381600087803b15801561228f57600080fd5b505af11580156122a3573d6000803e3d6000fd5b505050506040513d601f19601f820116820180604052508101906122c791906131b1565b905080612300576040517f9f5c462100000000000000000000000000000000000000000000000000000000815260040160405180910390fd5b7f000000000000000000000000000000000000000000000000000000000000000073ffffffffffffffffffffffffffffffffffffffff1663095ea7b37f0000000000000000000000000000000000000000000000000000000000000000856040518363ffffffff1660e01b815260040161237b929190613ca5565b602060405180830381600087803b15801561239557600080fd5b505af11580156123a9573d6000803e3d6000fd5b505050506040513d601f19601f820116820180604052508101906123cd91906131b1565b905080612406576040517f9f5c462100000000000000000000000000000000000000000000000000000000815260040160405180910390fd5b60006040518060a001604052807f00000000000000000000000000000000000000000000000000000000000000007f00000000000000000000000000000000000000000000000000000000000000007f00000000000000000000000000000000000000000000000000000000000000007f00000000000000000000000000000000000000000000000000000000000000008a6040516020016124ac959493929190613a24565b60405160208183030381529060405281526020018873ffffffffffffffffffffffffffffffffffffffff1681526020016064426124e99190614161565b815260200185815260200187815250905060007f000000000000000000000000000000000000000000000000000000000000000073ffffffffffffffffffffffffffffffffffffffff1663c04b8d59836040518263ffffffff1660e01b81526004016125559190613f70565b602060405180830381600087803b15801561256f57600080fd5b505af1158015612583573d6000803e3d6000fd5b505050506040513d601f19601f820116820180604052508101906125a79190613432565b90507f0a7cb8f6e1d29e616c1209a3f418c17b3a9137005377f6dd072217b1ede2573b8686836040516125dc93929190613d13565b60405180910390a1809350505050949350505050565b7f000000000000000000000000000000000000000000000000000000000000000081565b61261e61299b565b600073ffffffffffffffffffffffffffffffffffffffff168173ffffffffffffffffffffffffffffffffffffffff16141561268e576040517f08c379a000000000000000000000000000000000000000000000000000000000815260040161268590613e90565b60405180910390fd5b61269781612a19565b50565b600160009054906101000a900473ffffffffffffffffffffffffffffffffffffffff1673ffffffffffffffffffffffffffffffffffffffff163373ffffffffffffffffffffffffffffffffffffffff161461272c57336040517fcbd9d2e00000000000000000000000000000000000000000000000000000000081526004016127239190613adf565b60405180910390fd5b565b6127af8363a9059cbb60e01b848460405160240161274d929190613ca5565b604051602081830303815290604052907bffffffffffffffffffffffffffffffffffffffffffffffffffffffff19166020820180517bffffffffffffffffffffffffffffffffffffffffffffffffffffffff8381831617835250505050612add565b505050565b600081148061284d575060008373ffffffffffffffffffffffffffffffffffffffff1663dd62ed3e30856040518363ffffffff1660e01b81526004016127fb929190613afa565b60206040518083038186803b15801561281357600080fd5b505afa158015612827573d6000803e3d6000fd5b505050506040513d601f19601f8201168201806040525081019061284b9190613432565b145b61288c576040517f08c379a000000000000000000000000000000000000000000000000000000000815260040161288390613f50565b60405180910390fd5b61290d8363095ea7b360e01b84846040516024016128ab929190613ca5565b604051602081830303815290604052907bffffffffffffffffffffffffffffffffffffffffffffffffffffffff19166020820180517bffffffffffffffffffffffffffffffffffffffffffffffffffffffff8381831617835250505050612add565b505050565b612995846323b872dd60e01b85858560405160240161293393929190613b23565b604051602081830303815290604052907bffffffffffffffffffffffffffffffffffffffffffffffffffffffff19166020820180517bffffffffffffffffffffffffffffffffffffffffffffffffffffffff8381831617835250505050612add565b50505050565b6129a3612ba4565b73ffffffffffffffffffffffffffffffffffffffff166129c1611d8c565b73ffffffffffffffffffffffffffffffffffffffff1614612a17576040517f08c379a0000000000000000000000000000000000000000000000000000000008152600401612a0e90613ed0565b60405180910390fd5b565b60008060009054906101000a900473ffffffffffffffffffffffffffffffffffffffff169050816000806101000a81548173ffffffffffffffffffffffffffffffffffffffff021916908373ffffffffffffffffffffffffffffffffffffffff1602179055508173ffffffffffffffffffffffffffffffffffffffff168173ffffffffffffffffffffffffffffffffffffffff167f8be0079c531659141344cd1fd0a4f28419497f9722a3daafe3b4186f6b6457e060405160405180910390a35050565b6000612b3f826040518060400160405280602081526020017f5361666545524332303a206c6f772d6c6576656c2063616c6c206661696c65648152508573ffffffffffffffffffffffffffffffffffffffff16612bac9092919063ffffffff16565b9050600081511115612b9f5780806020019051810190612b5f91906131b1565b612b9e576040517f08c379a0000000000000000000000000000000000000000000000000000000008152600401612b9590613f30565b60405180910390fd5b5b505050565b600033905090565b6060612bbb8484600085612bc4565b90509392505050565b606082471015612c09576040517f08c379a0000000000000000000000000000000000000000000000000000000008152600401612c0090613eb0565b60405180910390fd5b6000808673ffffffffffffffffffffffffffffffffffffffff168587604051612c329190613a9c565b60006040518083038185875af1925050503d8060008114612c6f576040519150601f19603f3d011682016040523d82523d6000602084013e612c74565b606091505b5091509150612c8587838387612c91565b92505050949350505050565b60608315612cf457600083511415612cec57612cac85612d07565b612ceb576040517f08c379a0000000000000000000000000000000000000000000000000000000008152600401612ce290613f10565b60405180910390fd5b5b829050612cff565b612cfe8383612d2a565b5b949350505050565b6000808273ffffffffffffffffffffffffffffffffffffffff163b119050919050565b600082511115612d3d5781518083602001fd5b806040517f08c379a0000000000000000000000000000000000000000000000000000000008152600401612d719190613e6e565b60405180910390fd5b828054612d869061436b565b90600052602060002090601f016020900481019282612da85760008555612def565b82601f10612dc157803560ff1916838001178555612def565b82800160010185558215612def579182015b82811115612dee578235825591602001919060010190612dd3565b5b509050612dfc9190612e00565b5090565b5b80821115612e19576000816000905550600101612e01565b5090565b6000612e30612e2b846140b7565b614092565b905082815260208101848484011115612e4c57612e4b6144c9565b5b612e57848285614329565b509392505050565b600081359050612e6e816146a1565b92915050565b600081359050612e83816146b8565b92915050565b600081359050612e98816146cf565b92915050565b600081519050612ead816146cf565b92915050565b600081359050612ec2816146e6565b92915050565b60008083601f840112612ede57612edd6144ab565b5b8235905067ffffffffffffffff811115612efb57612efa6144a6565b5b602083019150836001820283011115612f1757612f166144bf565b5b9250929050565b600082601f830112612f3357612f326144ab565b5b8135612f43848260208601612e1d565b91505092915050565b600060a08284031215612f6257612f616144b5565b5b81905092915050565b600060c08284031215612f8157612f806144b5565b5b81905092915050565b600081359050612f99816146fd565b92915050565b600081519050612fae816146fd565b92915050565b600060208284031215612fca57612fc96144d3565b5b6000612fd884828501612e5f565b91505092915050565b60008060408385031215612ff857612ff76144d3565b5b600061300685828601612e5f565b925050602061301785828601612f8a565b9150509250929050565b6000806000806080858703121561303b5761303a6144d3565b5b600061304987828801612e5f565b945050602061305a87828801612f8a565b935050604061306b87828801612e5f565b925050606061307c87828801612f8a565b91505092959194509250565b60008060008060008060008060006101008a8c0312156130ab576130aa6144d3565b5b60006130b98c828d01612e5f565b99505060206130ca8c828d01612f8a565b98505060408a013567ffffffffffffffff8111156130eb576130ea6144ce565b5b6130f78c828d01612ec8565b9750975050606061310a8c828d01612e5f565b955050608061311b8c828d01612e89565b94505060a061312c8c828d01612f8a565b93505060c061313d8c828d01612f8a565b92505060e061314e8c828d01612f8a565b9150509295985092959850929598565b600080600060608486031215613177576131766144d3565b5b600061318586828701612e5f565b935050602061319686828701612f8a565b92505060406131a786828701612f8a565b9150509250925092565b6000602082840312156131c7576131c66144d3565b5b60006131d584828501612e9e565b91505092915050565b60008060008060008060008060006101208a8c031215613201576132006144d3565b5b600061320f8c828d01612eb3565b99505060206132208c828d01612e74565b98505060406132318c828d01612e74565b97505060606132428c828d01612f8a565b96505060808a013567ffffffffffffffff811115613263576132626144ce565b5b61326f8c828d01612f1e565b95505060a06132808c828d01612e74565b94505060c06132918c828d01612e89565b93505060e06132a28c828d01612f8a565b9250506101006132b48c828d01612e89565b9150509295985092959850929598565b600080600080600080600060c0888a0312156132e3576132e26144d3565b5b600088013567ffffffffffffffff811115613301576133006144ce565b5b61330d8a828b01612ec8565b975097505060206133208a828b01612e5f565b95505060406133318a828b01612e89565b94505060606133428a828b01612f8a565b93505060806133538a828b01612f8a565b92505060a06133648a828b01612f8a565b91505092959891949750929550565b600060208284031215613389576133886144d3565b5b600082013567ffffffffffffffff8111156133a7576133a66144ce565b5b6133b384828501612f4c565b91505092915050565b6000602082840312156133d2576133d16144d3565b5b600082013567ffffffffffffffff8111156133f0576133ef6144ce565b5b6133fc84828501612f6b565b91505092915050565b60006020828403121561341b5761341a6144d3565b5b600061342984828501612f8a565b91505092915050565b600060208284031215613448576134476144d3565b5b600061345684828501612f9f565b91505092915050565b600080600060408486031215613478576134776144d3565b5b600061348686828701612f8a565b935050602084013567ffffffffffffffff8111156134a7576134a66144ce565b5b6134b386828701612ec8565b92509250509250925092565b6134c8816141b7565b82525050565b6134d7816141b7565b82525050565b6134ee6134e9826141b7565b6143ce565b82525050565b6134fd816141db565b82525050565b61350c81614213565b82525050565b600061351e8385614134565b935061352b838584614329565b613534836144d8565b840190509392505050565b600061354b8385614145565b9350613558838584614329565b82840190509392505050565b600061356f8261410d565b6135798185614123565b9350613589818560208601614338565b613592816144d8565b840191505092915050565b60006135a88261410d565b6135b28185614134565b93506135c2818560208601614338565b6135cb816144d8565b840191505092915050565b60006135e18261410d565b6135eb8185614145565b93506135fb818560208601614338565b80840191505092915050565b600081546136148161436b565b61361e8186614145565b94506001821660008114613639576001811461364a5761367d565b60ff1983168652818601935061367d565b613653856140f8565b60005b8381101561367557815481890152600182019150602081019050613656565b838801955050505b50505092915050565b61368f816142bd565b82525050565b61369e816142cf565b82525050565b6136ad816142e1565b82525050565b6136bc816142f3565b82525050565b60006136cd82614118565b6136d78185614150565b93506136e7818560208601614338565b6136f0816144d8565b840191505092915050565b6000613708602683614150565b915061371382614510565b604082019050919050565b600061372b602683614150565b91506137368261455f565b604082019050919050565b600061374e602083614150565b9150613759826145ae565b602082019050919050565b6000613771600083614145565b915061377c826145d7565b600082019050919050565b6000613794600083614150565b915061379f826145d7565b600082019050919050565b60006137b7601d83614150565b91506137c2826145da565b602082019050919050565b60006137da602a83614150565b91506137e582614603565b604082019050919050565b60006137fd603683614150565b915061380882614652565b604082019050919050565b600060a08301600083015184820360008601526138308282613564565b915050602083015161384560208601826134bf565b5060408301516138586040860182613a06565b50606083015161386b6060860182613a06565b50608083015161387e6080860182613a06565b508091505092915050565b610100820160008201516138a060008501826134bf565b5060208201516138b360208501826134bf565b5060408201516138c660408501826139d1565b5060608201516138d960608501826134bf565b5060808201516138ec6080850182613a06565b5060a08201516138ff60a0850182613a06565b5060c082015161391260c0850182613a06565b5060e082015161392560e08501826139c2565b50505050565b600060c0830160008301516139436000860182613a06565b506020830151848203602086015261395b8282613564565b91505060408301516139706040860182613a06565b50606083015184820360608601526139888282613564565b915050608083015161399d6080860182613a06565b5060a083015184820360a08601526139b58282613564565b9150508091505092915050565b6139cb8161421d565b82525050565b6139da8161423d565b82525050565b6139e98161423d565b82525050565b613a006139fb8261423d565b6143f2565b82525050565b613a0f8161424c565b82525050565b613a1e8161424c565b82525050565b6000613a3082886134dd565b601482019150613a4082876139ef565b600382019150613a5082866134dd565b601482019150613a6082856139ef565b600382019150613a7082846134dd565b6014820191508190509695505050505050565b6000613a9082848661353f565b91508190509392505050565b6000613aa882846135d6565b915081905092915050565b6000613abf8284613607565b915081905092915050565b6000613ad582613764565b9150819050919050565b6000602082019050613af460008301846134ce565b92915050565b6000604082019050613b0f60008301856134ce565b613b1c60208301846134ce565b9392505050565b6000606082019050613b3860008301866134ce565b613b4560208301856134ce565b613b526040830184613a15565b949350505050565b600060c082019050613b6f60008301896134ce565b613b7c60208301886134ce565b613b896040830187613a15565b613b9660608301866134ce565b613ba36080830185613a15565b613bb060a08301846134ce565b979650505050505050565b6000608082019050613bd060008301876134ce565b613bdd60208301866134ce565b613bea6040830185613a15565b613bf76060830184613a15565b95945050505050565b6000604082019050613c1560008301856134ce565b613c2260208301846136b3565b9392505050565b6000608082019050613c3e60008301876134ce565b613c4b60208301866136b3565b613c5860408301856134ce565b613c656060830184613a15565b95945050505050565b6000606082019050613c8360008301866134ce565b613c9060208301856136b3565b613c9d6040830184613a15565b949350505050565b6000604082019050613cba60008301856134ce565b613cc76020830184613a15565b9392505050565b6000608082019050613ce360008301876134ce565b613cf06020830186613a15565b613cfd60408301856134ce565b613d0a6060830184613a15565b95945050505050565b6000606082019050613d2860008301866134ce565b613d356020830185613a15565b613d426040830184613a15565b949350505050565b6000602082019050613d5f6000830184613503565b92915050565b600061012082019050613d7b600083018d613503565b613d88602083018c6134ce565b613d95604083018b6134ce565b613da2606083018a613a15565b8181036080830152613db581888a613512565b9050613dc460a08301876134ce565b613dd160c08301866134f4565b613dde60e0830185613a15565b613dec6101008301846134f4565b9b9a5050505050505050505050565b60006020820190508181036000830152613e15818461359d565b905092915050565b6000602082019050613e326000830184613686565b92915050565b6000602082019050613e4d6000830184613695565b92915050565b6000602082019050613e6860008301846136a4565b92915050565b60006020820190508181036000830152613e8881846136c2565b905092915050565b60006020820190508181036000830152613ea9816136fb565b9050919050565b60006020820190508181036000830152613ec98161371e565b9050919050565b60006020820190508181036000830152613ee981613741565b9050919050565b60006020820190508181036000830152613f0981613787565b9050919050565b60006020820190508181036000830152613f29816137aa565b9050919050565b60006020820190508181036000830152613f49816137cd565b9050919050565b60006020820190508181036000830152613f69816137f0565b9050919050565b60006020820190508181036000830152613f8a8184613813565b905092915050565b600061010082019050613fa86000830184613889565b92915050565b60006020820190508181036000830152613fc8818461392b565b905092915050565b6000602082019050613fe560008301846139e0565b92915050565b60006020820190506140006000830184613a15565b92915050565b600060408201905061401b6000830185613a15565b6140286020830184613a15565b9392505050565b6000808335600160200384360303811261404c5761404b6144ba565b5b80840192508235915067ffffffffffffffff82111561406e5761406d6144b0565b5b60208301925060018202360383131561408a576140896144c4565b5b509250929050565b600061409c6140ad565b90506140a8828261439d565b919050565b6000604051905090565b600067ffffffffffffffff8211156140d2576140d1614462565b5b6140db826144d8565b9050602081019050919050565b6000819050602082019050919050565b60008190508160005260206000209050919050565b600081519050919050565b600081519050919050565b600082825260208201905092915050565b600082825260208201905092915050565b600081905092915050565b600082825260208201905092915050565b600061416c8261424c565b91506141778361424c565b9250827fffffffffffffffffffffffffffffffffffffffffffffffffffffffffffffffff038211156141ac576141ab614404565b5b828201905092915050565b60006141c28261421d565b9050919050565b60006141d48261421d565b9050919050565b60008115159050919050565b60007fffffffffffffffffffffffffffffffffffffffff00000000000000000000000082169050919050565b6000819050919050565b600073ffffffffffffffffffffffffffffffffffffffff82169050919050565b600062ffffff82169050919050565b6000819050919050565b60006142618261410d565b8261426b846140e8565b905061427681614491565b925060148210156142b6576142b17fffffffffffffffffffffffffffffffffffffffff00000000000000000000000083601403600802614503565b831692505b5050919050565b60006142c882614305565b9050919050565b60006142da82614305565b9050919050565b60006142ec82614305565b9050919050565b60006142fe8261424c565b9050919050565b600061431082614317565b9050919050565b60006143228261421d565b9050919050565b82818337600083830152505050565b60005b8381101561435657808201518184015260208101905061433b565b83811115614365576000848401525b50505050565b6000600282049050600182168061438357607f821691505b6020821081141561439757614396614433565b5b50919050565b6143a6826144d8565b810181811067ffffffffffffffff821117156143c5576143c4614462565b5b80604052505050565b60006143d9826143e0565b9050919050565b60006143eb826144f6565b9050919050565b60006143fd826144e9565b9050919050565b7f4e487b7100000000000000000000000000000000000000000000000000000000600052601160045260246000fd5b7f4e487b7100000000000000000000000000000000000000000000000000000000600052602260045260246000fd5b7f4e487b7100000000000000000000000000000000000000000000000000000000600052604160045260246000fd5b600061449d82516141e7565b80915050919050565b600080fd5b600080fd5b600080fd5b600080fd5b600080fd5b600080fd5b600080fd5b600080fd5b600080fd5b600080fd5b6000601f19601f8301169050919050565b60008160e81b9050919050565b60008160601b9050919050565b600082821b905092915050565b7f4f776e61626c653a206e6577206f776e657220697320746865207a65726f206160008201527f6464726573730000000000000000000000000000000000000000000000000000602082015250565b7f416464726573733a20696e73756666696369656e742062616c616e636520666f60008201527f722063616c6c0000000000000000000000000000000000000000000000000000602082015250565b7f4f776e61626c653a2063616c6c6572206973206e6f7420746865206f776e6572600082015250565b50565b7f416464726573733a2063616c6c20746f206e6f6e2d636f6e7472616374000000600082015250565b7f5361666545524332303a204552433230206f7065726174696f6e20646964206e60008201527f6f74207375636365656400000000000000000000000000000000000000000000602082015250565b7f5361666545524332303a20617070726f76652066726f6d206e6f6e2d7a65726f60008201527f20746f206e6f6e2d7a65726f20616c6c6f77616e636500000000000000000000602082015250565b6146aa816141b7565b81146146b557600080fd5b50565b6146c1816141c9565b81146146cc57600080fd5b50565b6146d8816141db565b81146146e357600080fd5b50565b6146ef81614213565b81146146fa57600080fd5b50565b6147068161424c565b811461471157600080fd5b5056fea2646970667358221220b269d62f7a5053af5765a69c2671cd8a8a2284c3c7d4aa18e7553c49169ba1e964736f6c63430008070033",
  "immutableReferences": {
    "1044": [
      {
        "length": 32,
        "start": 4305
      }
    ],
    "1211": [
      {
        "length": 32,
        "start": 1494
      },
      {
        "length": 32,
        "start": 2634
      },
      {
        "length": 32,
        "start": 4141
      },
      {
        "length": 32,
        "start": 6045
      },
      {
        "length": 32,
        "start": 9270
      }
    ],
    "1213": [
      {
        "length": 32,
        "start": 2568
      },
      {
        "length": 32,
        "start": 6723
      },
      {
        "length": 32,
        "start": 9336
      }
    ],
    "1215": [
      {
        "length": 32,
        "start": 1374
      },
      {
        "length": 32,
        "start": 2601
      },
      {
        "length": 32,
        "start": 5985
      },
      {
        "length": 32,
        "start": 6350
      },
      {
        "length": 32,
        "start": 7353
      },
      {
        "length": 32,
        "start": 9303
      }
    ],
    "1217": [
      {
        "length": 32,
        "start": 1434
      },
      {
        "length": 32,
        "start": 1868
      },
      {
        "length": 32,
        "start": 2667
      },
      {
        "length": 32,
        "start": 3448
      },
      {
        "length": 32,
        "start": 3553
      },
      {
        "length": 32,
        "start": 3644
      },
      {
        "length": 32,
        "start": 4448
      },
      {
        "length": 32,
        "start": 4541
      },
      {
        "length": 32,
        "start": 4621
      },
      {
        "length": 32,
        "start": 4713
      },
      {
        "length": 32,
        "start": 5417
      },
      {
        "length": 32,
        "start": 5649
      },
      {
        "length": 32,
        "start": 5925
      },
      {
        "length": 32,
        "start": 7003
      },
      {
        "length": 32,
        "start": 7654
      },
      {
        "length": 32,
        "start": 7977
      },
      {
        "length": 32,
        "start": 8730
      },
      {
        "length": 32,
        "start": 8962
      },
      {
        "length": 32,
        "start": 9237
      }
    ],
    "1220": [
      {
        "length": 32,
        "start": 1626
      },
      {
        "length": 32,
        "start": 2352
      },
      {
        "length": 32,
        "start": 2800
      },
      {
        "length": 32,
        "start": 3206
      },
      {
        "length": 32,
        "start": 5709
      },
      {
        "length": 32,
        "start": 6177
      },
      {
        "length": 32,
        "start": 9022
      },
      {
        "length": 32,
        "start": 9470
      }
    ],
    "1223": [
      {
        "length": 32,
        "start": 9716
      }
    ]
  },
  "source": "// SPDX-License-Identifier: MIT\r\npragma solidity 0.8.7;\r\n\r\nimport \"@openzeppelin/contracts/interfaces/IERC20.sol\";\r\nimport \"@openzeppelin/contracts/token/ERC20/utils/SafeERC20.sol\";\r\nimport \"@zetachain/protocol-contracts/contracts/ZetaTokenConsumerUniV3.strategy.sol\";\r\n\r\n// import \"./MultiChainSwapErrors.sol\";\r\nimport \"./MultiChainSwap.sol\";\r\n\r\ncontract MultiChainSwapUniV3 is MultiChainSwap, ZetaInteractor, ZetaTokenConsumerUniV3 {\r\n    using SafeERC20 for IERC20;\r\n    bytes32 public constant CROSS_CHAIN_SWAP_MESSAGE = keccak256(\"CROSS_CHAIN_SWAP\");\r\n\r\n    constructor(\r\n        address zetaConnector_,\r\n        address zetaToken_,\r\n        address uniswapV3Router_,\r\n        address quoter_,\r\n        address WETH9Address_,\r\n        uint24 zetaPoolFee_,\r\n        uint24 tokenPoolFee_\r\n    )\r\n        ZetaTokenConsumerUniV3(zetaToken_, uniswapV3Router_, quoter_, WETH9Address_, zetaPoolFee_, tokenPoolFee_)\r\n        ZetaInteractor(zetaConnector_)\r\n    {}\r\n\r\n    function swapETHForTokensCrossChain(\r\n        bytes calldata receiverAddress,\r\n        address destinationOutToken,\r\n        bool isDestinationOutETH,\r\n        /**\r\n         * @dev The minimum amount of tokens that receiverAddress should get,\r\n         * if it's not reached, the transaction will revert on the destination chain\r\n         */\r\n        uint256 outTokenMinAmount,\r\n        uint256 destinationChainId,\r\n        uint256 crossChaindestinationGasLimit\r\n    ) external payable override {\r\n        uint256 zetaValueAndGas = this.getZetaFromEth{value: msg.value}(\r\n            address(this),\r\n            0 /// @todo Add min amount\r\n        );\r\n\r\n        IERC20(zetaToken).safeApprove(address(connector), zetaValueAndGas);\r\n\r\n        connector.send(\r\n            ZetaInterfaces.SendInput({\r\n                destinationChainId: destinationChainId,\r\n                destinationAddress: interactorsByChainId[destinationChainId],\r\n                destinationGasLimit: crossChaindestinationGasLimit,\r\n                message: abi.encode(\r\n                    CROSS_CHAIN_SWAP_MESSAGE,\r\n                    msg.sender,\r\n                    WETH9Address,\r\n                    msg.value,\r\n                    receiverAddress,\r\n                    destinationOutToken,\r\n                    isDestinationOutETH,\r\n                    outTokenMinAmount,\r\n                    true // inputTokenIsETH\r\n                ),\r\n                zetaValueAndGas: zetaValueAndGas,\r\n                zetaParams: abi.encode(\"\")\r\n            })\r\n        );\r\n    }\r\n\r\n    function swapTokensForTokensCrossChain(\r\n        address sourceInputToken,\r\n        uint256 inputTokenAmount,\r\n        bytes calldata receiverAddress,\r\n        address destinationOutToken,\r\n        bool isDestinationOutETH,\r\n        /**\r\n         * @dev The minimum amount of tokens that receiverAddress should get,\r\n         * if it's not reached, the transaction will revert on the destination chain\r\n         */\r\n        uint256 outTokenMinAmount,\r\n        uint256 destinationChainId,\r\n        uint256 crossChaindestinationGasLimit\r\n    ) external override {\r\n        uint256 zetaValueAndGas;\r\n\r\n        IERC20(sourceInputToken).safeTransferFrom(msg.sender, address(this), inputTokenAmount);\r\n\r\n        if (sourceInputToken == zetaToken) {\r\n            zetaValueAndGas = inputTokenAmount;\r\n        } else {\r\n            IERC20(sourceInputToken).safeApprove(address(this), inputTokenAmount);\r\n            zetaValueAndGas = this.getZetaFromToken(\r\n                address(this),\r\n                0, /// @todo Add min amount\r\n                sourceInputToken,\r\n                inputTokenAmount\r\n            );\r\n        }\r\n\r\n        IERC20(zetaToken).safeApprove(address(connector), zetaValueAndGas);\r\n\r\n        connector.send(\r\n            ZetaInterfaces.SendInput({\r\n                destinationChainId: destinationChainId,\r\n                destinationAddress: interactorsByChainId[destinationChainId],\r\n                destinationGasLimit: crossChaindestinationGasLimit,\r\n                message: abi.encode(\r\n                    CROSS_CHAIN_SWAP_MESSAGE,\r\n                    msg.sender,\r\n                    sourceInputToken,\r\n                    inputTokenAmount,\r\n                    receiverAddress,\r\n                    destinationOutToken,\r\n                    isDestinationOutETH,\r\n                    outTokenMinAmount,\r\n                    false // inputTokenIsETH\r\n                ),\r\n                zetaValueAndGas: zetaValueAndGas,\r\n                zetaParams: abi.encode(\"\")\r\n            })\r\n        );\r\n    }\r\n\r\n    function onZetaMessage(ZetaInterfaces.ZetaMessage calldata zetaMessage)\r\n        external\r\n        override\r\n        isValidMessageCall(zetaMessage)\r\n    {\r\n        (\r\n            bytes32 messageType,\r\n            address sourceTxOrigin,\r\n            address sourceInputToken,\r\n            uint256 inputTokenAmount,\r\n            bytes memory receiverAddressEncoded,\r\n            address destinationOutToken,\r\n            bool isDestinationOutETH,\r\n            uint256 outTokenMinAmount,\r\n\r\n        ) = abi.decode(zetaMessage.message, (bytes32, address, address, uint256, bytes, address, bool, uint256, bool));\r\n\r\n        uint256 outTokenFinalAmount;\r\n        if (destinationOutToken == zetaToken) {\r\n            IERC20(zetaToken).safeTransfer(address(uint160(bytes20(receiverAddressEncoded))), zetaMessage.zetaValueAndGas);\r\n\r\n            outTokenFinalAmount = zetaMessage.zetaValueAndGas;\r\n        } else {\r\n            /**\r\n             * @dev If the out token is not Zeta, get it using Uniswap\r\n             */\r\n            IERC20(zetaToken).safeApprove(address(this), zetaMessage.zetaValueAndGas);\r\n\r\n            if (isDestinationOutETH) {\r\n                outTokenFinalAmount = this.getEthFromZeta(\r\n                    address(uint160(bytes20(receiverAddressEncoded))),\r\n                    outTokenMinAmount,\r\n                    zetaMessage.zetaValueAndGas\r\n                );\r\n            } else {\r\n                outTokenFinalAmount = this.getTokenFromZeta(\r\n                    address(uint160(bytes20(receiverAddressEncoded))),\r\n                    outTokenMinAmount,\r\n                    destinationOutToken,\r\n                    zetaMessage.zetaValueAndGas\r\n                );\r\n            }\r\n        }\r\n\r\n        emit Swapped(\r\n            sourceTxOrigin,\r\n            sourceInputToken,\r\n            inputTokenAmount,\r\n            destinationOutToken,\r\n            outTokenFinalAmount,\r\n            address(uint160(bytes20(receiverAddressEncoded)))\r\n        );\r\n    }\r\n\r\n    function onZetaRevert(ZetaInterfaces.ZetaRevert calldata zetaRevert)\r\n        external\r\n        override\r\n        isValidRevertCall(zetaRevert)\r\n    {\r\n        /**\r\n         * @dev: If something goes wrong we must swap to the source input token\r\n         */\r\n        (\r\n            ,\r\n            address sourceTxOrigin,\r\n            address sourceInputToken,\r\n            uint256 inputTokenAmount,\r\n            ,\r\n            ,\r\n            ,\r\n            ,\r\n            bool inputTokenIsETH\r\n        ) = abi.decode(zetaRevert.message, (bytes32, address, address, uint256, bytes, address, bool, uint256, bool));\r\n\r\n        uint256 inputTokenReturnedAmount;\r\n        if (sourceInputToken == zetaToken) {\r\n            IERC20(zetaToken).safeApprove(address(this), zetaRevert.zetaValueAndGas);\r\n            IERC20(zetaToken).safeTransferFrom(address(this), sourceTxOrigin, zetaRevert.zetaValueAndGas);\r\n            inputTokenReturnedAmount = zetaRevert.zetaValueAndGas;\r\n        } else {\r\n            /**\r\n             * @dev If the source input token is not Zeta, trade it using Uniswap\r\n             */\r\n            IERC20(zetaToken).safeApprove(address(this), zetaRevert.zetaValueAndGas);\r\n\r\n            if (inputTokenIsETH) {\r\n                inputTokenReturnedAmount = this.getEthFromZeta(\r\n                    sourceTxOrigin,\r\n                    0, /// @todo Add min amount\r\n                    zetaRevert.zetaValueAndGas\r\n                );\r\n            } else {\r\n                inputTokenReturnedAmount = this.getTokenFromZeta(\r\n                    sourceTxOrigin,\r\n                    0, /// @todo Add min amount\r\n                    sourceInputToken,\r\n                    zetaRevert.zetaValueAndGas\r\n                );\r\n            }\r\n        }\r\n\r\n        emit RevertedSwap(sourceTxOrigin, sourceInputToken, inputTokenAmount, inputTokenReturnedAmount);\r\n    }\r\n}\r\n",
  "sourcePath": "D:\\dev\\Blockchain\\zetaswapV2\\contracts\\ZetaSwap.sol",
  "compiler": {
    "name": "solc",
    "version": "0.8.7+commit.e28d00a7.Emscripten.clang"
  },
  "schemaVersion": "3.4.11",
  "updatedAt": "2023-02-23T04:14:30.751Z",
  "devdoc": {
    "kind": "dev",
    "methods": {
      "onZetaMessage((bytes,uint256,address,uint256,bytes))": {
        "details": "onZetaMessage is called when a cross-chain message reaches a contract"
      },
      "onZetaRevert((address,uint256,bytes,uint256,uint256,bytes))": {
        "details": "onZetaRevert is called when a cross-chain message reverts. It's useful to rollback to the original state"
      },
      "owner()": {
        "details": "Returns the address of the current owner."
      },
      "renounceOwnership()": {
        "details": "Leaves the contract without owner. It will not be possible to call `onlyOwner` functions anymore. Can only be called by the current owner. NOTE: Renouncing ownership will leave the contract without an owner, thereby removing any functionality that is only available to the owner."
      },
      "transferOwnership(address)": {
        "details": "Transfers ownership of the contract to a new account (`newOwner`). Can only be called by the current owner."
      }
    },
    "version": 1
  },
  "userdoc": {
    "kind": "user",
    "methods": {},
    "version": 1
  }
}