{
  "contractName": "ZetaTokenConsumerUniV3",
  "abi": [
    {
      "inputs": [
        {
          "internalType": "address",
          "name": "zetaToken_",
          "type": "address"
        },
        {
          "internalType": "address",
          "name": "uniswapV3Router_",
          "type": "address"
        },
        {
          "internalType": "address",
          "name": "quoter_",
          "type": "address"
        },
        {
          "internalType": "address",
          "name": "WETH9Address_",
          "type": "address"
        },
        {
          "internalType": "uint24",
          "name": "zetaPoolFee_",
          "type": "uint24"
        },
        {
          "internalType": "uint24",
          "name": "tokenPoolFee_",
          "type": "uint24"
        }
      ],
      "stateMutability": "nonpayable",
      "type": "constructor"
    },
    {
      "inputs": [],
      "name": "ErrorGettingToken",
      "type": "error"
    },
    {
      "inputs": [],
      "name": "ErrorSendingETH",
      "type": "error"
    },
    {
      "inputs": [],
      "name": "InputCantBeZero",
      "type": "error"
    },
    {
      "inputs": [],
      "name": "InvalidAddress",
      "type": "error"
    },
    {
      "anonymous": false,
      "inputs": [
        {
          "indexed": false,
          "internalType": "uint256",
          "name": "amountIn",
          "type": "uint256"
        },
        {
          "indexed": false,
          "internalType": "uint256",
          "name": "amountOut",
          "type": "uint256"
        }
      ],
      "name": "EthExchangedForZeta",
      "type": "event"
    },
    {
      "anonymous": false,
      "inputs": [
        {
          "indexed": false,
          "internalType": "address",
          "name": "token",
          "type": "address"
        },
        {
          "indexed": false,
          "internalType": "uint256",
          "name": "amountIn",
          "type": "uint256"
        },
        {
          "indexed": false,
          "internalType": "uint256",
          "name": "amountOut",
          "type": "uint256"
        }
      ],
      "name": "TokenExchangedForZeta",
      "type": "event"
    },
    {
      "anonymous": false,
      "inputs": [
        {
          "indexed": false,
          "internalType": "uint256",
          "name": "amountIn",
          "type": "uint256"
        },
        {
          "indexed": false,
          "internalType": "uint256",
          "name": "amountOut",
          "type": "uint256"
        }
      ],
      "name": "ZetaExchangedForEth",
      "type": "event"
    },
    {
      "anonymous": false,
      "inputs": [
        {
          "indexed": false,
          "internalType": "address",
          "name": "token",
          "type": "address"
        },
        {
          "indexed": false,
          "internalType": "uint256",
          "name": "amountIn",
          "type": "uint256"
        },
        {
          "indexed": false,
          "internalType": "uint256",
          "name": "amountOut",
          "type": "uint256"
        }
      ],
      "name": "ZetaExchangedForToken",
      "type": "event"
    },
    {
      "inputs": [],
      "name": "quoter",
      "outputs": [
        {
          "internalType": "contract IQuoter",
          "name": "",
          "type": "address"
        }
      ],
      "stateMutability": "view",
      "type": "function"
    },
    {
      "inputs": [],
      "name": "tokenPoolFee",
      "outputs": [
        {
          "internalType": "uint24",
          "name": "",
          "type": "uint24"
        }
      ],
      "stateMutability": "view",
      "type": "function"
    },
    {
      "inputs": [],
      "name": "uniswapV3Router",
      "outputs": [
        {
          "internalType": "contract ISwapRouter",
          "name": "",
          "type": "address"
        }
      ],
      "stateMutability": "view",
      "type": "function"
    },
    {
      "inputs": [],
      "name": "zetaPoolFee",
      "outputs": [
        {
          "internalType": "uint24",
          "name": "",
          "type": "uint24"
        }
      ],
      "stateMutability": "view",
      "type": "function"
    },
    {
      "inputs": [],
      "name": "zetaToken",
      "outputs": [
        {
          "internalType": "address",
          "name": "",
          "type": "address"
        }
      ],
      "stateMutability": "view",
      "type": "function"
    },
    {
      "stateMutability": "payable",
      "type": "receive"
    },
    {
      "inputs": [
        {
          "internalType": "address",
          "name": "destinationAddress",
          "type": "address"
        },
        {
          "internalType": "uint256",
          "name": "minAmountOut",
          "type": "uint256"
        }
      ],
      "name": "getZetaFromEth",
      "outputs": [
        {
          "internalType": "uint256",
          "name": "",
          "type": "uint256"
        }
      ],
      "stateMutability": "payable",
      "type": "function"
    },
    {
      "inputs": [
        {
          "internalType": "address",
          "name": "destinationAddress",
          "type": "address"
        },
        {
          "internalType": "uint256",
          "name": "minAmountOut",
          "type": "uint256"
        },
        {
          "internalType": "address",
          "name": "inputToken",
          "type": "address"
        },
        {
          "internalType": "uint256",
          "name": "inputTokenAmount",
          "type": "uint256"
        }
      ],
      "name": "getZetaFromToken",
      "outputs": [
        {
          "internalType": "uint256",
          "name": "",
          "type": "uint256"
        }
      ],
      "stateMutability": "nonpayable",
      "type": "function"
    },
    {
      "inputs": [
        {
          "internalType": "address",
          "name": "destinationAddress",
          "type": "address"
        },
        {
          "internalType": "uint256",
          "name": "minAmountOut",
          "type": "uint256"
        },
        {
          "internalType": "uint256",
          "name": "zetaTokenAmount",
          "type": "uint256"
        }
      ],
      "name": "getEthFromZeta",
      "outputs": [
        {
          "internalType": "uint256",
          "name": "",
          "type": "uint256"
        }
      ],
      "stateMutability": "nonpayable",
      "type": "function"
    },
    {
      "inputs": [
        {
          "internalType": "address",
          "name": "destinationAddress",
          "type": "address"
        },
        {
          "internalType": "uint256",
          "name": "minAmountOut",
          "type": "uint256"
        },
        {
          "internalType": "address",
          "name": "outputToken",
          "type": "address"
        },
        {
          "internalType": "uint256",
          "name": "zetaTokenAmount",
          "type": "uint256"
        }
      ],
      "name": "getTokenFromZeta",
      "outputs": [
        {
          "internalType": "uint256",
          "name": "",
          "type": "uint256"
        }
      ],
      "stateMutability": "nonpayable",
      "type": "function"
    }
  ],
  "bytecode": "0x6101406040523480156200001257600080fd5b50604051620021713803806200217183398181016040528101906200003891906200028a565b600073ffffffffffffffffffffffffffffffffffffffff168673ffffffffffffffffffffffffffffffffffffffff161480620000a05750600073ffffffffffffffffffffffffffffffffffffffff168573ffffffffffffffffffffffffffffffffffffffff16145b80620000d85750600073ffffffffffffffffffffffffffffffffffffffff168473ffffffffffffffffffffffffffffffffffffffff16145b80620001105750600073ffffffffffffffffffffffffffffffffffffffff168373ffffffffffffffffffffffffffffffffffffffff16145b1562000148576040517fe6c4247b00000000000000000000000000000000000000000000000000000000815260040160405180910390fd5b8573ffffffffffffffffffffffffffffffffffffffff1660e08173ffffffffffffffffffffffffffffffffffffffff1660601b815250508473ffffffffffffffffffffffffffffffffffffffff166101008173ffffffffffffffffffffffffffffffffffffffff1660601b815250508373ffffffffffffffffffffffffffffffffffffffff166101208173ffffffffffffffffffffffffffffffffffffffff1660601b815250508273ffffffffffffffffffffffffffffffffffffffff1660c08173ffffffffffffffffffffffffffffffffffffffff1660601b815250508162ffffff1660808162ffffff1660e81b815250508062ffffff1660a08162ffffff1660e81b81525050505050505050620003a2565b6000815190506200026d816200036e565b92915050565b600081519050620002848162000388565b92915050565b60008060008060008060c08789031215620002aa57620002a962000369565b5b6000620002ba89828a016200025c565b9650506020620002cd89828a016200025c565b9550506040620002e089828a016200025c565b9450506060620002f389828a016200025c565b93505060806200030689828a0162000273565b92505060a06200031989828a0162000273565b9150509295509295509295565b600062000333826200033a565b9050919050565b600073ffffffffffffffffffffffffffffffffffffffff82169050919050565b600062ffffff82169050919050565b600080fd5b620003798162000326565b81146200038557600080fd5b50565b62000393816200035a565b81146200039f57600080fd5b50565b60805160e81c60a05160e81c60c05160601c60e05160601c6101005160601c6101205160601c611cbe620004b36000396000611470015260008181610403015281816106d9015281816108990152818161098f01528181610ba001528181610d74015281816111ba015261137a015260008181610343015281816104f50152818161081401528181610a7c01528181610b6401528181610c78015281816110960152818161117e0152611291015260008181610307015281816107d201528181610cb401528181610e2101526112d30152600081816107b101528181610f9601526112f401526000818161037f015281816107f3015281816109b301528181610cf001526112b20152611cbe6000f3fe60806040526004361061008a5760003560e01c80633cbd7005116100595780633cbd70051461015957806354c49a2a146101845780635d9dfdde146101c1578063a53fb10b146101ec578063c6bbd5a71461022957610091565b8063013b2ff81461009657806321e093b1146100c65780632405620a146100f15780632c76d7a61461012e57610091565b3661009157005b600080fd5b6100b060048036038101906100ab91906114e6565b610254565b6040516100bd9190611a18565b60405180910390f35b3480156100d257600080fd5b506100db6104f3565b6040516100e891906118d7565b60405180910390f35b3480156100fd57600080fd5b5061011860048036038101906101139190611526565b610517565b6040516101259190611a18565b60405180910390f35b34801561013a57600080fd5b5061014361098d565b60405161015091906119a4565b60405180910390f35b34801561016557600080fd5b5061016e6109b1565b60405161017b91906119fd565b60405180910390f35b34801561019057600080fd5b506101ab60048036038101906101a6919061158d565b6109d5565b6040516101b89190611a18565b60405180910390f35b3480156101cd57600080fd5b506101d6610f94565b6040516101e391906119fd565b60405180910390f35b3480156101f857600080fd5b50610213600480360381019061020e9190611526565b610fb8565b6040516102209190611a18565b60405180910390f35b34801561023557600080fd5b5061023e61146e565b60405161024b9190611989565b60405180910390f35b60008073ffffffffffffffffffffffffffffffffffffffff168373ffffffffffffffffffffffffffffffffffffffff1614156102bc576040517fe6c4247b00000000000000000000000000000000000000000000000000000000815260040160405180910390fd5b60003414156102f7576040517fb813f54900000000000000000000000000000000000000000000000000000000815260040160405180910390fd5b60006040518061010001604052807f000000000000000000000000000000000000000000000000000000000000000073ffffffffffffffffffffffffffffffffffffffff1681526020017f000000000000000000000000000000000000000000000000000000000000000073ffffffffffffffffffffffffffffffffffffffff1681526020017f000000000000000000000000000000000000000000000000000000000000000062ffffff1681526020018573ffffffffffffffffffffffffffffffffffffffff1681526020016064426103d19190611a83565b8152602001348152602001848152602001600073ffffffffffffffffffffffffffffffffffffffff16815250905060007f000000000000000000000000000000000000000000000000000000000000000073ffffffffffffffffffffffffffffffffffffffff1663414bf38934846040518363ffffffff1660e01b815260040161045b91906119e1565b6020604051808303818588803b15801561047457600080fd5b505af1158015610488573d6000803e3d6000fd5b50505050506040513d601f19601f820116820180604052508101906104ad919061160d565b90507f87890b0a30955b1db16cc894fbe24779ae05d9f337bfe8b6dfc0809b5bf9da1134826040516104e0929190611a33565b60405180910390a1809250505092915050565b7f000000000000000000000000000000000000000000000000000000000000000081565b60008073ffffffffffffffffffffffffffffffffffffffff168573ffffffffffffffffffffffffffffffffffffffff16148061057f5750600073ffffffffffffffffffffffffffffffffffffffff168373ffffffffffffffffffffffffffffffffffffffff16145b156105b6576040517fe6c4247b00000000000000000000000000000000000000000000000000000000815260040160405180910390fd5b60008214156105f1576040517fb813f54900000000000000000000000000000000000000000000000000000000815260040160405180910390fd5b60008373ffffffffffffffffffffffffffffffffffffffff166323b872dd3330866040518463ffffffff1660e01b8152600401610630939291906118f2565b602060405180830381600087803b15801561064a57600080fd5b505af115801561065e573d6000803e3d6000fd5b505050506040513d601f19601f8201168201806040525081019061068291906115e0565b9050806106bb576040517f9f5c462100000000000000000000000000000000000000000000000000000000815260040160405180910390fd5b8373ffffffffffffffffffffffffffffffffffffffff1663095ea7b37f0000000000000000000000000000000000000000000000000000000000000000856040518363ffffffff1660e01b8152600401610716929190611929565b602060405180830381600087803b15801561073057600080fd5b505af1158015610744573d6000803e3d6000fd5b505050506040513d601f19601f8201168201806040525081019061076891906115e0565b9050806107a1576040517f9f5c462100000000000000000000000000000000000000000000000000000000815260040160405180910390fd5b60006040518060a00160405280867f00000000000000000000000000000000000000000000000000000000000000007f00000000000000000000000000000000000000000000000000000000000000007f00000000000000000000000000000000000000000000000000000000000000007f0000000000000000000000000000000000000000000000000000000000000000604051602001610847959493929190611863565b60405160208183030381529060405281526020018873ffffffffffffffffffffffffffffffffffffffff1681526020016064426108849190611a83565b815260200185815260200187815250905060007f000000000000000000000000000000000000000000000000000000000000000073ffffffffffffffffffffffffffffffffffffffff1663c04b8d59836040518263ffffffff1660e01b81526004016108f091906119bf565b602060405180830381600087803b15801561090a57600080fd5b505af115801561091e573d6000803e3d6000fd5b505050506040513d601f19601f82011682018060405250810190610942919061160d565b90507f017190d3d99ee6d8dd0604ef1e71ff9802810c6485f57c9b2ed6169848dd119f86868360405161097793929190611952565b60405180910390a1809350505050949350505050565b7f000000000000000000000000000000000000000000000000000000000000000081565b7f000000000000000000000000000000000000000000000000000000000000000081565b60008073ffffffffffffffffffffffffffffffffffffffff168473ffffffffffffffffffffffffffffffffffffffff161415610a3d576040517fe6c4247b00000000000000000000000000000000000000000000000000000000815260040160405180910390fd5b6000821415610a78576040517fb813f54900000000000000000000000000000000000000000000000000000000815260040160405180910390fd5b60007f000000000000000000000000000000000000000000000000000000000000000073ffffffffffffffffffffffffffffffffffffffff166323b872dd3330866040518463ffffffff1660e01b8152600401610ad7939291906118f2565b602060405180830381600087803b158015610af157600080fd5b505af1158015610b05573d6000803e3d6000fd5b505050506040513d601f19601f82011682018060405250810190610b2991906115e0565b905080610b62576040517f9f5c462100000000000000000000000000000000000000000000000000000000815260040160405180910390fd5b7f000000000000000000000000000000000000000000000000000000000000000073ffffffffffffffffffffffffffffffffffffffff1663095ea7b37f0000000000000000000000000000000000000000000000000000000000000000856040518363ffffffff1660e01b8152600401610bdd929190611929565b602060405180830381600087803b158015610bf757600080fd5b505af1158015610c0b573d6000803e3d6000fd5b505050506040513d601f19601f82011682018060405250810190610c2f91906115e0565b905080610c68576040517f9f5c462100000000000000000000000000000000000000000000000000000000815260040160405180910390fd5b60006040518061010001604052807f000000000000000000000000000000000000000000000000000000000000000073ffffffffffffffffffffffffffffffffffffffff1681526020017f000000000000000000000000000000000000000000000000000000000000000073ffffffffffffffffffffffffffffffffffffffff1681526020017f000000000000000000000000000000000000000000000000000000000000000062ffffff1681526020013073ffffffffffffffffffffffffffffffffffffffff168152602001606442610d429190611a83565b8152602001858152602001868152602001600073ffffffffffffffffffffffffffffffffffffffff16815250905060007f000000000000000000000000000000000000000000000000000000000000000073ffffffffffffffffffffffffffffffffffffffff1663414bf389836040518263ffffffff1660e01b8152600401610dcb91906119e1565b602060405180830381600087803b158015610de557600080fd5b505af1158015610df9573d6000803e3d6000fd5b505050506040513d601f19601f82011682018060405250810190610e1d919061160d565b90507f000000000000000000000000000000000000000000000000000000000000000073ffffffffffffffffffffffffffffffffffffffff16632e1a7d4d826040518263ffffffff1660e01b8152600401610e789190611a18565b600060405180830381600087803b158015610e9257600080fd5b505af1158015610ea6573d6000803e3d6000fd5b5050505060008773ffffffffffffffffffffffffffffffffffffffff1682604051610ed0906118c2565b60006040518083038185875af1925050503d8060008114610f0d576040519150601f19603f3d011682016040523d82523d6000602084013e610f12565b606091505b5050905080610f4d576040517f3794aeaf00000000000000000000000000000000000000000000000000000000815260040160405180910390fd5b7f74e171117e91660f493740924d8bad0caf48dc4fbccb767fb05935397a2c17ae8683604051610f7e929190611a33565b60405180910390a1819450505050509392505050565b7f000000000000000000000000000000000000000000000000000000000000000081565b60008073ffffffffffffffffffffffffffffffffffffffff168573ffffffffffffffffffffffffffffffffffffffff1614806110205750600073ffffffffffffffffffffffffffffffffffffffff168373ffffffffffffffffffffffffffffffffffffffff16145b15611057576040517fe6c4247b00000000000000000000000000000000000000000000000000000000815260040160405180910390fd5b6000821415611092576040517fb813f54900000000000000000000000000000000000000000000000000000000815260040160405180910390fd5b60007f000000000000000000000000000000000000000000000000000000000000000073ffffffffffffffffffffffffffffffffffffffff166323b872dd3330866040518463ffffffff1660e01b81526004016110f1939291906118f2565b602060405180830381600087803b15801561110b57600080fd5b505af115801561111f573d6000803e3d6000fd5b505050506040513d601f19601f8201168201806040525081019061114391906115e0565b90508061117c576040517f9f5c462100000000000000000000000000000000000000000000000000000000815260040160405180910390fd5b7f000000000000000000000000000000000000000000000000000000000000000073ffffffffffffffffffffffffffffffffffffffff1663095ea7b37f0000000000000000000000000000000000000000000000000000000000000000856040518363ffffffff1660e01b81526004016111f7929190611929565b602060405180830381600087803b15801561121157600080fd5b505af1158015611225573d6000803e3d6000fd5b505050506040513d601f19601f8201168201806040525081019061124991906115e0565b905080611282576040517f9f5c462100000000000000000000000000000000000000000000000000000000815260040160405180910390fd5b60006040518060a001604052807f00000000000000000000000000000000000000000000000000000000000000007f00000000000000000000000000000000000000000000000000000000000000007f00000000000000000000000000000000000000000000000000000000000000007f00000000000000000000000000000000000000000000000000000000000000008a604051602001611328959493929190611863565b60405160208183030381529060405281526020018873ffffffffffffffffffffffffffffffffffffffff1681526020016064426113659190611a83565b815260200185815260200187815250905060007f000000000000000000000000000000000000000000000000000000000000000073ffffffffffffffffffffffffffffffffffffffff1663c04b8d59836040518263ffffffff1660e01b81526004016113d191906119bf565b602060405180830381600087803b1580156113eb57600080fd5b505af11580156113ff573d6000803e3d6000fd5b505050506040513d601f19601f82011682018060405250810190611423919061160d565b90507f0a7cb8f6e1d29e616c1209a3f418c17b3a9137005377f6dd072217b1ede2573b86868360405161145893929190611952565b60405180910390a1809350505050949350505050565b7f000000000000000000000000000000000000000000000000000000000000000081565b6000813590506114a181611c43565b92915050565b6000815190506114b681611c5a565b92915050565b6000813590506114cb81611c71565b92915050565b6000815190506114e081611c71565b92915050565b600080604083850312156114fd576114fc611c10565b5b600061150b85828601611492565b925050602061151c858286016114bc565b9150509250929050565b600080600080608085870312156115405761153f611c10565b5b600061154e87828801611492565b945050602061155f878288016114bc565b935050604061157087828801611492565b9250506060611581878288016114bc565b91505092959194509250565b6000806000606084860312156115a6576115a5611c10565b5b60006115b486828701611492565b93505060206115c5868287016114bc565b92505060406115d6868287016114bc565b9150509250925092565b6000602082840312156115f6576115f5611c10565b5b6000611604848285016114a7565b91505092915050565b60006020828403121561162357611622611c10565b5b6000611631848285016114d1565b91505092915050565b61164381611ad9565b82525050565b61165281611ad9565b82525050565b61166961166482611ad9565b611bab565b82525050565b600061167a82611a5c565b6116848185611a67565b9350611694818560208601611b78565b61169d81611c15565b840191505092915050565b6116b181611b30565b82525050565b6116c081611b42565b82525050565b60006116d3600083611a78565b91506116de82611c40565b600082019050919050565b600060a0830160008301518482036000860152611706828261166f565b915050602083015161171b602086018261163a565b50604083015161172e6040860182611845565b5060608301516117416060860182611845565b5060808301516117546080860182611845565b508091505092915050565b61010082016000820151611776600085018261163a565b506020820151611789602085018261163a565b50604082015161179c6040850182611810565b5060608201516117af606085018261163a565b5060808201516117c26080850182611845565b5060a08201516117d560a0850182611845565b5060c08201516117e860c0850182611845565b5060e08201516117fb60e0850182611801565b50505050565b61180a81611af7565b82525050565b61181981611b17565b82525050565b61182881611b17565b82525050565b61183f61183a82611b17565b611bcf565b82525050565b61184e81611b26565b82525050565b61185d81611b26565b82525050565b600061186f8288611658565b60148201915061187f828761182e565b60038201915061188f8286611658565b60148201915061189f828561182e565b6003820191506118af8284611658565b6014820191508190509695505050505050565b60006118cd826116c6565b9150819050919050565b60006020820190506118ec6000830184611649565b92915050565b60006060820190506119076000830186611649565b6119146020830185611649565b6119216040830184611854565b949350505050565b600060408201905061193e6000830185611649565b61194b6020830184611854565b9392505050565b60006060820190506119676000830186611649565b6119746020830185611854565b6119816040830184611854565b949350505050565b600060208201905061199e60008301846116a8565b92915050565b60006020820190506119b960008301846116b7565b92915050565b600060208201905081810360008301526119d981846116e9565b905092915050565b6000610100820190506119f7600083018461175f565b92915050565b6000602082019050611a12600083018461181f565b92915050565b6000602082019050611a2d6000830184611854565b92915050565b6000604082019050611a486000830185611854565b611a556020830184611854565b9392505050565b600081519050919050565b600082825260208201905092915050565b600081905092915050565b6000611a8e82611b26565b9150611a9983611b26565b9250827fffffffffffffffffffffffffffffffffffffffffffffffffffffffffffffffff03821115611ace57611acd611be1565b5b828201905092915050565b6000611ae482611af7565b9050919050565b60008115159050919050565b600073ffffffffffffffffffffffffffffffffffffffff82169050919050565b600062ffffff82169050919050565b6000819050919050565b6000611b3b82611b54565b9050919050565b6000611b4d82611b54565b9050919050565b6000611b5f82611b66565b9050919050565b6000611b7182611af7565b9050919050565b60005b83811015611b96578082015181840152602081019050611b7b565b83811115611ba5576000848401525b50505050565b6000611bb682611bbd565b9050919050565b6000611bc882611c33565b9050919050565b6000611bda82611c26565b9050919050565b7f4e487b7100000000000000000000000000000000000000000000000000000000600052601160045260246000fd5b600080fd5b6000601f19601f8301169050919050565b60008160e81b9050919050565b60008160601b9050919050565b50565b611c4c81611ad9565b8114611c5757600080fd5b50565b611c6381611aeb565b8114611c6e57600080fd5b50565b611c7a81611b26565b8114611c8557600080fd5b5056fea264697066735822122022425efbde33b076922ada7e0008a428c47c035a280ec63e71c2de87576b292c64736f6c63430008070033",
  "immutableReferences": {
    "1211": [
      {
        "length": 32,
        "start": 895
      },
      {
        "length": 32,
        "start": 2035
      },
      {
        "length": 32,
        "start": 2483
      },
      {
        "length": 32,
        "start": 3312
      },
      {
        "length": 32,
        "start": 4786
      }
    ],
    "1213": [
      {
        "length": 32,
        "start": 1969
      },
      {
        "length": 32,
        "start": 3990
      },
      {
        "length": 32,
        "start": 4852
      }
    ],
    "1215": [
      {
        "length": 32,
        "start": 775
      },
      {
        "length": 32,
        "start": 2002
      },
      {
        "length": 32,
        "start": 3252
      },
      {
        "length": 32,
        "start": 3617
      },
      {
        "length": 32,
        "start": 4819
      }
    ],
    "1217": [
      {
        "length": 32,
        "start": 835
      },
      {
        "length": 32,
        "start": 1269
      },
      {
        "length": 32,
        "start": 2068
      },
      {
        "length": 32,
        "start": 2684
      },
      {
        "length": 32,
        "start": 2916
      },
      {
        "length": 32,
        "start": 3192
      },
      {
        "length": 32,
        "start": 4246
      },
      {
        "length": 32,
        "start": 4478
      },
      {
        "length": 32,
        "start": 4753
      }
    ],
    "1220": [
      {
        "length": 32,
        "start": 1027
      },
      {
        "length": 32,
        "start": 1753
      },
      {
        "length": 32,
        "start": 2201
      },
      {
        "length": 32,
        "start": 2447
      },
      {
        "length": 32,
        "start": 2976
      },
      {
        "length": 32,
        "start": 3444
      },
      {
        "length": 32,
        "start": 4538
      },
      {
        "length": 32,
        "start": 4986
      }
    ],
    "1223": [
      {
        "length": 32,
        "start": 5232
      }
    ]
  },
  "source": "// SPDX-License-Identifier: MIT\npragma solidity 0.8.7;\n\nimport \"@openzeppelin/contracts/interfaces/IERC20.sol\";\nimport \"@uniswap/v3-periphery/contracts/interfaces/ISwapRouter.sol\";\nimport \"@uniswap/v3-periphery/contracts/interfaces/IQuoter.sol\";\n\nimport \"./interfaces/ZetaInterfaces.sol\";\n\ninterface ZetaTokenConsumerUniV3Errors {\n    error InvalidAddress();\n\n    error InputCantBeZero();\n\n    error ErrorGettingToken();\n\n    error ErrorSendingETH();\n}\n\ninterface WETH9 {\n    function withdraw(uint256 wad) external;\n}\n\n/**\n * @dev Uniswap V3 strategy for ZetaTokenConsumer\n */\ncontract ZetaTokenConsumerUniV3 is ZetaTokenConsumer, ZetaTokenConsumerUniV3Errors {\n    uint256 internal constant MAX_DEADLINE = 100;\n\n    uint24 public immutable zetaPoolFee;\n    uint24 public immutable tokenPoolFee;\n\n    address internal immutable WETH9Address;\n    address public immutable zetaToken;\n\n    ISwapRouter public immutable uniswapV3Router;\n    IQuoter public immutable quoter;\n\n    constructor(\n        address zetaToken_,\n        address uniswapV3Router_,\n        address quoter_,\n        address WETH9Address_,\n        uint24 zetaPoolFee_,\n        uint24 tokenPoolFee_\n    ) {\n        if (\n            zetaToken_ == address(0) ||\n            uniswapV3Router_ == address(0) ||\n            quoter_ == address(0) ||\n            WETH9Address_ == address(0)\n        ) revert InvalidAddress();\n\n        zetaToken = zetaToken_;\n        uniswapV3Router = ISwapRouter(uniswapV3Router_);\n        quoter = IQuoter(quoter_);\n        WETH9Address = WETH9Address_;\n        zetaPoolFee = zetaPoolFee_;\n        tokenPoolFee = tokenPoolFee_;\n    }\n\n    receive() external payable {}\n\n    function getZetaFromEth(address destinationAddress, uint256 minAmountOut)\n        external\n        payable\n        override\n        returns (uint256)\n    {\n        if (destinationAddress == address(0)) revert InvalidAddress();\n        if (msg.value == 0) revert InputCantBeZero();\n\n        ISwapRouter.ExactInputSingleParams memory params = ISwapRouter.ExactInputSingleParams({\n            deadline: block.timestamp + MAX_DEADLINE,\n            tokenIn: WETH9Address,\n            tokenOut: zetaToken,\n            fee: zetaPoolFee,\n            recipient: destinationAddress,\n            amountIn: msg.value,\n            amountOutMinimum: minAmountOut,\n            sqrtPriceLimitX96: 0\n        });\n\n        uint256 amountOut = uniswapV3Router.exactInputSingle{value: msg.value}(params);\n\n        emit EthExchangedForZeta(msg.value, amountOut);\n        return amountOut;\n    }\n\n    function getZetaFromToken(\n        address destinationAddress,\n        uint256 minAmountOut,\n        address inputToken,\n        uint256 inputTokenAmount\n    ) external override returns (uint256) {\n        if (destinationAddress == address(0) || inputToken == address(0)) revert InvalidAddress();\n        if (inputTokenAmount == 0) revert InputCantBeZero();\n\n        bool success = IERC20(inputToken).transferFrom(msg.sender, address(this), inputTokenAmount);\n        if (!success) revert ErrorGettingToken();\n        success = IERC20(inputToken).approve(address(uniswapV3Router), inputTokenAmount);\n        if (!success) revert ErrorGettingToken();\n\n        ISwapRouter.ExactInputParams memory params = ISwapRouter.ExactInputParams({\n            deadline: block.timestamp + MAX_DEADLINE,\n            path: abi.encodePacked(inputToken, tokenPoolFee, WETH9Address, zetaPoolFee, zetaToken),\n            recipient: destinationAddress,\n            amountIn: inputTokenAmount,\n            amountOutMinimum: minAmountOut\n        });\n\n        uint256 amountOut = uniswapV3Router.exactInput(params);\n\n        emit TokenExchangedForZeta(inputToken, inputTokenAmount, amountOut);\n        return amountOut;\n    }\n\n    function getEthFromZeta(\n        address destinationAddress,\n        uint256 minAmountOut,\n        uint256 zetaTokenAmount\n    ) external override returns (uint256) {\n        if (destinationAddress == address(0)) revert InvalidAddress();\n        if (zetaTokenAmount == 0) revert InputCantBeZero();\n\n        bool success = IERC20(zetaToken).transferFrom(msg.sender, address(this), zetaTokenAmount);\n        if (!success) revert ErrorGettingToken();\n        success = IERC20(zetaToken).approve(address(uniswapV3Router), zetaTokenAmount);\n        if (!success) revert ErrorGettingToken();\n\n        ISwapRouter.ExactInputSingleParams memory params = ISwapRouter.ExactInputSingleParams({\n            deadline: block.timestamp + MAX_DEADLINE,\n            tokenIn: zetaToken,\n            tokenOut: WETH9Address,\n            fee: zetaPoolFee,\n            recipient: address(this),\n            amountIn: zetaTokenAmount,\n            amountOutMinimum: minAmountOut,\n            sqrtPriceLimitX96: 0\n        });\n\n        uint256 amountOut = uniswapV3Router.exactInputSingle(params);\n\n        WETH9(WETH9Address).withdraw(amountOut);\n\n        (bool sent, ) = destinationAddress.call{value: amountOut}(\"\");\n        if (!sent) revert ErrorSendingETH();\n\n        emit ZetaExchangedForEth(zetaTokenAmount, amountOut);\n        return amountOut;\n    }\n\n    function getTokenFromZeta(\n        address destinationAddress,\n        uint256 minAmountOut,\n        address outputToken,\n        uint256 zetaTokenAmount\n    ) external override returns (uint256) {\n        if (destinationAddress == address(0) || outputToken == address(0)) revert InvalidAddress();\n        if (zetaTokenAmount == 0) revert InputCantBeZero();\n\n        bool success = IERC20(zetaToken).transferFrom(msg.sender, address(this), zetaTokenAmount);\n        if (!success) revert ErrorGettingToken();\n        success = IERC20(zetaToken).approve(address(uniswapV3Router), zetaTokenAmount);\n        if (!success) revert ErrorGettingToken();\n\n        ISwapRouter.ExactInputParams memory params = ISwapRouter.ExactInputParams({\n            deadline: block.timestamp + MAX_DEADLINE,\n            path: abi.encodePacked(zetaToken, zetaPoolFee, WETH9Address, tokenPoolFee, outputToken),\n            recipient: destinationAddress,\n            amountIn: zetaTokenAmount,\n            amountOutMinimum: minAmountOut\n        });\n\n        uint256 amountOut = uniswapV3Router.exactInput(params);\n\n        emit ZetaExchangedForToken(outputToken, zetaTokenAmount, amountOut);\n        return amountOut;\n    }\n}\n",
  "sourcePath": "@zetachain\\protocol-contracts\\contracts\\ZetaTokenConsumerUniV3.strategy.sol",
  "compiler": {
    "name": "solc",
    "version": "0.8.7+commit.e28d00a7.Emscripten.clang"
  },
  "schemaVersion": "3.4.11",
  "updatedAt": "2023-02-23T04:14:30.712Z",
  "devdoc": {
    "details": "Uniswap V3 strategy for ZetaTokenConsumer",
    "kind": "dev",
    "methods": {},
    "version": 1
  },
  "userdoc": {
    "kind": "user",
    "methods": {},
    "version": 1
  }
}